{
	"contracts/Pet_Contract.sol": {
		"Pet_Contract": {
			"abi": [
				{
					"inputs": [],
					"name": "getPet",
					"outputs": [
						{
							"internalType": "string",
							"name": "",
							"type": "string"
						},
						{
							"internalType": "string",
							"name": "",
							"type": "string"
						},
						{
							"internalType": "string",
							"name": "",
							"type": "string"
						}
					],
					"stateMutability": "view",
					"type": "function"
				},
				{
					"inputs": [],
					"name": "petAge",
					"outputs": [
						{
							"internalType": "string",
							"name": "",
							"type": "string"
						}
					],
					"stateMutability": "view",
					"type": "function"
				},
				{
					"inputs": [],
					"name": "petName",
					"outputs": [
						{
							"internalType": "string",
							"name": "",
							"type": "string"
						}
					],
					"stateMutability": "view",
					"type": "function"
				},
				{
					"inputs": [],
					"name": "petOwner",
					"outputs": [
						{
							"internalType": "string",
							"name": "",
							"type": "string"
						}
					],
					"stateMutability": "view",
					"type": "function"
				},
				{
					"inputs": [
						{
							"internalType": "string",
							"name": "newPetName",
							"type": "string"
						},
						{
							"internalType": "string",
							"name": "newPetOwner",
							"type": "string"
						},
						{
							"internalType": "string",
							"name": "newPetAge",
							"type": "string"
						}
					],
					"name": "setPet",
					"outputs": [],
					"stateMutability": "nonpayable",
					"type": "function"
				}
			],
			"devdoc": {
				"kind": "dev",
				"methods": {},
				"version": 1
			},
			"evm": {
				"assembly": "    /* \"contracts/Pet_Contract.sol\":64:734  contract Pet_Contract{... */\n  mstore(0x40, 0x80)\n  callvalue\n  dup1\n  iszero\n  tag_1\n  jumpi\n  0x00\n  dup1\n  revert\ntag_1:\n  pop\n  dataSize(sub_0)\n  dup1\n  dataOffset(sub_0)\n  0x00\n  codecopy\n  0x00\n  return\nstop\n\nsub_0: assembly {\n        /* \"contracts/Pet_Contract.sol\":64:734  contract Pet_Contract{... */\n      mstore(0x40, 0x80)\n      callvalue\n      dup1\n      iszero\n      tag_1\n      jumpi\n      0x00\n      dup1\n      revert\n    tag_1:\n      pop\n      jumpi(tag_2, lt(calldatasize, 0x04))\n      shr(0xe0, calldataload(0x00))\n      dup1\n      0x4b2c979c\n      eq\n      tag_3\n      jumpi\n      dup1\n      0x871c8c67\n      eq\n      tag_4\n      jumpi\n      dup1\n      0x8cf3375d\n      eq\n      tag_5\n      jumpi\n      dup1\n      0x90373d53\n      eq\n      tag_6\n      jumpi\n      dup1\n      0xbe468181\n      eq\n      tag_7\n      jumpi\n    tag_2:\n      0x00\n      dup1\n      revert\n        /* \"contracts/Pet_Contract.sol\":150:171  string public petName */\n    tag_3:\n      tag_8\n      tag_9\n      jump\t// in\n    tag_8:\n      mload(0x40)\n      tag_10\n      swap2\n      swap1\n      tag_11\n      jump\t// in\n    tag_10:\n      mload(0x40)\n      dup1\n      swap2\n      sub\n      swap1\n      return\n        /* \"contracts/Pet_Contract.sol\":207:227  string public petAge */\n    tag_4:\n      tag_12\n      tag_13\n      jump\t// in\n    tag_12:\n      mload(0x40)\n      tag_14\n      swap2\n      swap1\n      tag_11\n      jump\t// in\n    tag_14:\n      mload(0x40)\n      dup1\n      swap2\n      sub\n      swap1\n      return\n        /* \"contracts/Pet_Contract.sol\":559:731  function getPet() public view returns (... */\n    tag_5:\n      tag_15\n      tag_16\n      jump\t// in\n    tag_15:\n      mload(0x40)\n      tag_17\n      swap4\n      swap3\n      swap2\n      swap1\n      tag_18\n      jump\t// in\n    tag_17:\n      mload(0x40)\n      dup1\n      swap2\n      sub\n      swap1\n      return\n        /* \"contracts/Pet_Contract.sol\":274:510  function setPet( ... */\n    tag_6:\n      tag_19\n      0x04\n      dup1\n      calldatasize\n      sub\n      dup2\n      add\n      swap1\n      tag_20\n      swap2\n      swap1\n      tag_21\n      jump\t// in\n    tag_20:\n      tag_22\n      jump\t// in\n    tag_19:\n      stop\n        /* \"contracts/Pet_Contract.sol\":178:200  string public petOwner */\n    tag_7:\n      tag_23\n      tag_24\n      jump\t// in\n    tag_23:\n      mload(0x40)\n      tag_25\n      swap2\n      swap1\n      tag_11\n      jump\t// in\n    tag_25:\n      mload(0x40)\n      dup1\n      swap2\n      sub\n      swap1\n      return\n        /* \"contracts/Pet_Contract.sol\":150:171  string public petName */\n    tag_9:\n      0x00\n      dup1\n      sload\n      tag_26\n      swap1\n      tag_27\n      jump\t// in\n    tag_26:\n      dup1\n      0x1f\n      add\n      0x20\n      dup1\n      swap2\n      div\n      mul\n      0x20\n      add\n      mload(0x40)\n      swap1\n      dup2\n      add\n      0x40\n      mstore\n      dup1\n      swap3\n      swap2\n      swap1\n      dup2\n      dup2\n      mstore\n      0x20\n      add\n      dup3\n      dup1\n      sload\n      tag_28\n      swap1\n      tag_27\n      jump\t// in\n    tag_28:\n      dup1\n      iszero\n      tag_29\n      jumpi\n      dup1\n      0x1f\n      lt\n      tag_30\n      jumpi\n      0x0100\n      dup1\n      dup4\n      sload\n      div\n      mul\n      dup4\n      mstore\n      swap2\n      0x20\n      add\n      swap2\n      jump(tag_29)\n    tag_30:\n      dup3\n      add\n      swap2\n      swap1\n      0x00\n      mstore\n      keccak256(0x00, 0x20)\n      swap1\n    tag_31:\n      dup2\n      sload\n      dup2\n      mstore\n      swap1\n      0x01\n      add\n      swap1\n      0x20\n      add\n      dup1\n      dup4\n      gt\n      tag_31\n      jumpi\n      dup3\n      swap1\n      sub\n      0x1f\n      and\n      dup3\n      add\n      swap2\n    tag_29:\n      pop\n      pop\n      pop\n      pop\n      pop\n      dup2\n      jump\t// out\n        /* \"contracts/Pet_Contract.sol\":207:227  string public petAge */\n    tag_13:\n      0x02\n      dup1\n      sload\n      tag_32\n      swap1\n      tag_27\n      jump\t// in\n    tag_32:\n      dup1\n      0x1f\n      add\n      0x20\n      dup1\n      swap2\n      div\n      mul\n      0x20\n      add\n      mload(0x40)\n      swap1\n      dup2\n      add\n      0x40\n      mstore\n      dup1\n      swap3\n      swap2\n      swap1\n      dup2\n      dup2\n      mstore\n      0x20\n      add\n      dup3\n      dup1\n      sload\n      tag_33\n      swap1\n      tag_27\n      jump\t// in\n    tag_33:\n      dup1\n      iszero\n      tag_34\n      jumpi\n      dup1\n      0x1f\n      lt\n      tag_35\n      jumpi\n      0x0100\n      dup1\n      dup4\n      sload\n      div\n      mul\n      dup4\n      mstore\n      swap2\n      0x20\n      add\n      swap2\n      jump(tag_34)\n    tag_35:\n      dup3\n      add\n      swap2\n      swap1\n      0x00\n      mstore\n      keccak256(0x00, 0x20)\n      swap1\n    tag_36:\n      dup2\n      sload\n      dup2\n      mstore\n      swap1\n      0x01\n      add\n      swap1\n      0x20\n      add\n      dup1\n      dup4\n      gt\n      tag_36\n      jumpi\n      dup3\n      swap1\n      sub\n      0x1f\n      and\n      dup3\n      add\n      swap2\n    tag_34:\n      pop\n      pop\n      pop\n      pop\n      pop\n      dup2\n      jump\t// out\n        /* \"contracts/Pet_Contract.sol\":559:731  function getPet() public view returns (... */\n    tag_16:\n        /* \"contracts/Pet_Contract.sol\":608:621  string memory */\n      0x60\n        /* \"contracts/Pet_Contract.sol\":633:646  string memory */\n      dup1\n        /* \"contracts/Pet_Contract.sol\":658:671  string memory */\n      0x60\n        /* \"contracts/Pet_Contract.sol\":697:703  petAge */\n      0x02\n        /* \"contracts/Pet_Contract.sol\":705:712  petName */\n      0x00\n        /* \"contracts/Pet_Contract.sol\":714:722  petOwner */\n      0x01\n        /* \"contracts/Pet_Contract.sol\":689:723  return (petAge, petName, petOwner) */\n      dup3\n      dup1\n      sload\n      tag_38\n      swap1\n      tag_27\n      jump\t// in\n    tag_38:\n      dup1\n      0x1f\n      add\n      0x20\n      dup1\n      swap2\n      div\n      mul\n      0x20\n      add\n      mload(0x40)\n      swap1\n      dup2\n      add\n      0x40\n      mstore\n      dup1\n      swap3\n      swap2\n      swap1\n      dup2\n      dup2\n      mstore\n      0x20\n      add\n      dup3\n      dup1\n      sload\n      tag_39\n      swap1\n      tag_27\n      jump\t// in\n    tag_39:\n      dup1\n      iszero\n      tag_40\n      jumpi\n      dup1\n      0x1f\n      lt\n      tag_41\n      jumpi\n      0x0100\n      dup1\n      dup4\n      sload\n      div\n      mul\n      dup4\n      mstore\n      swap2\n      0x20\n      add\n      swap2\n      jump(tag_40)\n    tag_41:\n      dup3\n      add\n      swap2\n      swap1\n      0x00\n      mstore\n      keccak256(0x00, 0x20)\n      swap1\n    tag_42:\n      dup2\n      sload\n      dup2\n      mstore\n      swap1\n      0x01\n      add\n      swap1\n      0x20\n      add\n      dup1\n      dup4\n      gt\n      tag_42\n      jumpi\n      dup3\n      swap1\n      sub\n      0x1f\n      and\n      dup3\n      add\n      swap2\n    tag_40:\n      pop\n      pop\n      pop\n      pop\n      pop\n      swap3\n      pop\n      dup2\n      dup1\n      sload\n      tag_43\n      swap1\n      tag_27\n      jump\t// in\n    tag_43:\n      dup1\n      0x1f\n      add\n      0x20\n      dup1\n      swap2\n      div\n      mul\n      0x20\n      add\n      mload(0x40)\n      swap1\n      dup2\n      add\n      0x40\n      mstore\n      dup1\n      swap3\n      swap2\n      swap1\n      dup2\n      dup2\n      mstore\n      0x20\n      add\n      dup3\n      dup1\n      sload\n      tag_44\n      swap1\n      tag_27\n      jump\t// in\n    tag_44:\n      dup1\n      iszero\n      tag_45\n      jumpi\n      dup1\n      0x1f\n      lt\n      tag_46\n      jumpi\n      0x0100\n      dup1\n      dup4\n      sload\n      div\n      mul\n      dup4\n      mstore\n      swap2\n      0x20\n      add\n      swap2\n      jump(tag_45)\n    tag_46:\n      dup3\n      add\n      swap2\n      swap1\n      0x00\n      mstore\n      keccak256(0x00, 0x20)\n      swap1\n    tag_47:\n      dup2\n      sload\n      dup2\n      mstore\n      swap1\n      0x01\n      add\n      swap1\n      0x20\n      add\n      dup1\n      dup4\n      gt\n      tag_47\n      jumpi\n      dup3\n      swap1\n      sub\n      0x1f\n      and\n      dup3\n      add\n      swap2\n    tag_45:\n      pop\n      pop\n      pop\n      pop\n      pop\n      swap2\n      pop\n      dup1\n      dup1\n      sload\n      tag_48\n      swap1\n      tag_27\n      jump\t// in\n    tag_48:\n      dup1\n      0x1f\n      add\n      0x20\n      dup1\n      swap2\n      div\n      mul\n      0x20\n      add\n      mload(0x40)\n      swap1\n      dup2\n      add\n      0x40\n      mstore\n      dup1\n      swap3\n      swap2\n      swap1\n      dup2\n      dup2\n      mstore\n      0x20\n      add\n      dup3\n      dup1\n      sload\n      tag_49\n      swap1\n      tag_27\n      jump\t// in\n    tag_49:\n      dup1\n      iszero\n      tag_50\n      jumpi\n      dup1\n      0x1f\n      lt\n      tag_51\n      jumpi\n      0x0100\n      dup1\n      dup4\n      sload\n      div\n      mul\n      dup4\n      mstore\n      swap2\n      0x20\n      add\n      swap2\n      jump(tag_50)\n    tag_51:\n      dup3\n      add\n      swap2\n      swap1\n      0x00\n      mstore\n      keccak256(0x00, 0x20)\n      swap1\n    tag_52:\n      dup2\n      sload\n      dup2\n      mstore\n      swap1\n      0x01\n      add\n      swap1\n      0x20\n      add\n      dup1\n      dup4\n      gt\n      tag_52\n      jumpi\n      dup3\n      swap1\n      sub\n      0x1f\n      and\n      dup3\n      add\n      swap2\n    tag_50:\n      pop\n      pop\n      pop\n      pop\n      pop\n      swap1\n      pop\n      swap3\n      pop\n      swap3\n      pop\n      swap3\n      pop\n        /* \"contracts/Pet_Contract.sol\":559:731  function getPet() public view returns (... */\n      swap1\n      swap2\n      swap3\n      jump\t// out\n        /* \"contracts/Pet_Contract.sol\":274:510  function setPet( ... */\n    tag_22:\n        /* \"contracts/Pet_Contract.sol\":430:440  newPetName */\n      dup3\n        /* \"contracts/Pet_Contract.sol\":420:427  petName */\n      0x00\n        /* \"contracts/Pet_Contract.sol\":420:440  petName = newPetName */\n      swap1\n      dup1\n      mload\n      swap1\n      0x20\n      add\n      swap1\n      tag_54\n      swap3\n      swap2\n      swap1\n      tag_55\n      jump\t// in\n    tag_54:\n      pop\n        /* \"contracts/Pet_Contract.sol\":462:473  newPetOwner */\n      dup2\n        /* \"contracts/Pet_Contract.sol\":451:459  petOwner */\n      0x01\n        /* \"contracts/Pet_Contract.sol\":451:473  petOwner = newPetOwner */\n      swap1\n      dup1\n      mload\n      swap1\n      0x20\n      add\n      swap1\n      tag_56\n      swap3\n      swap2\n      swap1\n      tag_55\n      jump\t// in\n    tag_56:\n      pop\n        /* \"contracts/Pet_Contract.sol\":493:502  newPetAge */\n      dup1\n        /* \"contracts/Pet_Contract.sol\":484:490  petAge */\n      0x02\n        /* \"contracts/Pet_Contract.sol\":484:502  petAge = newPetAge */\n      swap1\n      dup1\n      mload\n      swap1\n      0x20\n      add\n      swap1\n      tag_57\n      swap3\n      swap2\n      swap1\n      tag_55\n      jump\t// in\n    tag_57:\n      pop\n        /* \"contracts/Pet_Contract.sol\":274:510  function setPet( ... */\n      pop\n      pop\n      pop\n      jump\t// out\n        /* \"contracts/Pet_Contract.sol\":178:200  string public petOwner */\n    tag_24:\n      0x01\n      dup1\n      sload\n      tag_58\n      swap1\n      tag_27\n      jump\t// in\n    tag_58:\n      dup1\n      0x1f\n      add\n      0x20\n      dup1\n      swap2\n      div\n      mul\n      0x20\n      add\n      mload(0x40)\n      swap1\n      dup2\n      add\n      0x40\n      mstore\n      dup1\n      swap3\n      swap2\n      swap1\n      dup2\n      dup2\n      mstore\n      0x20\n      add\n      dup3\n      dup1\n      sload\n      tag_59\n      swap1\n      tag_27\n      jump\t// in\n    tag_59:\n      dup1\n      iszero\n      tag_60\n      jumpi\n      dup1\n      0x1f\n      lt\n      tag_61\n      jumpi\n      0x0100\n      dup1\n      dup4\n      sload\n      div\n      mul\n      dup4\n      mstore\n      swap2\n      0x20\n      add\n      swap2\n      jump(tag_60)\n    tag_61:\n      dup3\n      add\n      swap2\n      swap1\n      0x00\n      mstore\n      keccak256(0x00, 0x20)\n      swap1\n    tag_62:\n      dup2\n      sload\n      dup2\n      mstore\n      swap1\n      0x01\n      add\n      swap1\n      0x20\n      add\n      dup1\n      dup4\n      gt\n      tag_62\n      jumpi\n      dup3\n      swap1\n      sub\n      0x1f\n      and\n      dup3\n      add\n      swap2\n    tag_60:\n      pop\n      pop\n      pop\n      pop\n      pop\n      dup2\n      jump\t// out\n    tag_55:\n      dup3\n      dup1\n      sload\n      tag_63\n      swap1\n      tag_27\n      jump\t// in\n    tag_63:\n      swap1\n      0x00\n      mstore\n      keccak256(0x00, 0x20)\n      swap1\n      0x1f\n      add\n      0x20\n      swap1\n      div\n      dup2\n      add\n      swap3\n      dup3\n      tag_65\n      jumpi\n      0x00\n      dup6\n      sstore\n      jump(tag_64)\n    tag_65:\n      dup3\n      0x1f\n      lt\n      tag_66\n      jumpi\n      dup1\n      mload\n      not(0xff)\n      and\n      dup4\n      dup1\n      add\n      or\n      dup6\n      sstore\n      jump(tag_64)\n    tag_66:\n      dup3\n      dup1\n      add\n      0x01\n      add\n      dup6\n      sstore\n      dup3\n      iszero\n      tag_64\n      jumpi\n      swap2\n      dup3\n      add\n    tag_67:\n      dup3\n      dup2\n      gt\n      iszero\n      tag_68\n      jumpi\n      dup3\n      mload\n      dup3\n      sstore\n      swap2\n      0x20\n      add\n      swap2\n      swap1\n      0x01\n      add\n      swap1\n      jump(tag_67)\n    tag_68:\n    tag_64:\n      pop\n      swap1\n      pop\n      tag_69\n      swap2\n      swap1\n      tag_70\n      jump\t// in\n    tag_69:\n      pop\n      swap1\n      jump\t// out\n    tag_70:\n    tag_71:\n      dup1\n      dup3\n      gt\n      iszero\n      tag_72\n      jumpi\n      0x00\n      dup2\n      0x00\n      swap1\n      sstore\n      pop\n      0x01\n      add\n      jump(tag_71)\n    tag_72:\n      pop\n      swap1\n      jump\t// out\n        /* \"#utility.yul\":7:106   */\n    tag_73:\n        /* \"#utility.yul\":59:65   */\n      0x00\n        /* \"#utility.yul\":93:98   */\n      dup2\n        /* \"#utility.yul\":87:99   */\n      mload\n        /* \"#utility.yul\":77:99   */\n      swap1\n      pop\n        /* \"#utility.yul\":7:106   */\n      swap2\n      swap1\n      pop\n      jump\t// out\n        /* \"#utility.yul\":112:281   */\n    tag_74:\n        /* \"#utility.yul\":196:207   */\n      0x00\n        /* \"#utility.yul\":230:236   */\n      dup3\n        /* \"#utility.yul\":225:228   */\n      dup3\n        /* \"#utility.yul\":218:237   */\n      mstore\n        /* \"#utility.yul\":270:274   */\n      0x20\n        /* \"#utility.yul\":265:268   */\n      dup3\n        /* \"#utility.yul\":261:275   */\n      add\n        /* \"#utility.yul\":246:275   */\n      swap1\n      pop\n        /* \"#utility.yul\":112:281   */\n      swap3\n      swap2\n      pop\n      pop\n      jump\t// out\n        /* \"#utility.yul\":287:594   */\n    tag_75:\n        /* \"#utility.yul\":355:356   */\n      0x00\n        /* \"#utility.yul\":365:478   */\n    tag_95:\n        /* \"#utility.yul\":379:385   */\n      dup4\n        /* \"#utility.yul\":376:377   */\n      dup2\n        /* \"#utility.yul\":373:386   */\n      lt\n        /* \"#utility.yul\":365:478   */\n      iszero\n      tag_97\n      jumpi\n        /* \"#utility.yul\":464:465   */\n      dup1\n        /* \"#utility.yul\":459:462   */\n      dup3\n        /* \"#utility.yul\":455:466   */\n      add\n        /* \"#utility.yul\":449:467   */\n      mload\n        /* \"#utility.yul\":445:446   */\n      dup2\n        /* \"#utility.yul\":440:443   */\n      dup5\n        /* \"#utility.yul\":436:447   */\n      add\n        /* \"#utility.yul\":429:468   */\n      mstore\n        /* \"#utility.yul\":401:403   */\n      0x20\n        /* \"#utility.yul\":398:399   */\n      dup2\n        /* \"#utility.yul\":394:404   */\n      add\n        /* \"#utility.yul\":389:404   */\n      swap1\n      pop\n        /* \"#utility.yul\":365:478   */\n      jump(tag_95)\n    tag_97:\n        /* \"#utility.yul\":496:502   */\n      dup4\n        /* \"#utility.yul\":493:494   */\n      dup2\n        /* \"#utility.yul\":490:503   */\n      gt\n        /* \"#utility.yul\":487:588   */\n      iszero\n      tag_98\n      jumpi\n        /* \"#utility.yul\":576:577   */\n      0x00\n        /* \"#utility.yul\":567:573   */\n      dup5\n        /* \"#utility.yul\":562:565   */\n      dup5\n        /* \"#utility.yul\":558:574   */\n      add\n        /* \"#utility.yul\":551:578   */\n      mstore\n        /* \"#utility.yul\":487:588   */\n    tag_98:\n        /* \"#utility.yul\":336:594   */\n      pop\n        /* \"#utility.yul\":287:594   */\n      pop\n      pop\n      pop\n      jump\t// out\n        /* \"#utility.yul\":600:702   */\n    tag_76:\n        /* \"#utility.yul\":641:647   */\n      0x00\n        /* \"#utility.yul\":692:694   */\n      0x1f\n        /* \"#utility.yul\":688:695   */\n      not\n        /* \"#utility.yul\":683:685   */\n      0x1f\n        /* \"#utility.yul\":676:681   */\n      dup4\n        /* \"#utility.yul\":672:686   */\n      add\n        /* \"#utility.yul\":668:696   */\n      and\n        /* \"#utility.yul\":658:696   */\n      swap1\n      pop\n        /* \"#utility.yul\":600:702   */\n      swap2\n      swap1\n      pop\n      jump\t// out\n        /* \"#utility.yul\":708:1072   */\n    tag_77:\n        /* \"#utility.yul\":796:799   */\n      0x00\n        /* \"#utility.yul\":824:863   */\n      tag_101\n        /* \"#utility.yul\":857:862   */\n      dup3\n        /* \"#utility.yul\":824:863   */\n      tag_73\n      jump\t// in\n    tag_101:\n        /* \"#utility.yul\":879:950   */\n      tag_102\n        /* \"#utility.yul\":943:949   */\n      dup2\n        /* \"#utility.yul\":938:941   */\n      dup6\n        /* \"#utility.yul\":879:950   */\n      tag_74\n      jump\t// in\n    tag_102:\n        /* \"#utility.yul\":872:950   */\n      swap4\n      pop\n        /* \"#utility.yul\":959:1011   */\n      tag_103\n        /* \"#utility.yul\":1004:1010   */\n      dup2\n        /* \"#utility.yul\":999:1002   */\n      dup6\n        /* \"#utility.yul\":992:996   */\n      0x20\n        /* \"#utility.yul\":985:990   */\n      dup7\n        /* \"#utility.yul\":981:997   */\n      add\n        /* \"#utility.yul\":959:1011   */\n      tag_75\n      jump\t// in\n    tag_103:\n        /* \"#utility.yul\":1036:1065   */\n      tag_104\n        /* \"#utility.yul\":1058:1064   */\n      dup2\n        /* \"#utility.yul\":1036:1065   */\n      tag_76\n      jump\t// in\n    tag_104:\n        /* \"#utility.yul\":1031:1034   */\n      dup5\n        /* \"#utility.yul\":1027:1066   */\n      add\n        /* \"#utility.yul\":1020:1066   */\n      swap2\n      pop\n        /* \"#utility.yul\":800:1072   */\n      pop\n        /* \"#utility.yul\":708:1072   */\n      swap3\n      swap2\n      pop\n      pop\n      jump\t// out\n        /* \"#utility.yul\":1078:1391   */\n    tag_11:\n        /* \"#utility.yul\":1191:1195   */\n      0x00\n        /* \"#utility.yul\":1229:1231   */\n      0x20\n        /* \"#utility.yul\":1218:1227   */\n      dup3\n        /* \"#utility.yul\":1214:1232   */\n      add\n        /* \"#utility.yul\":1206:1232   */\n      swap1\n      pop\n        /* \"#utility.yul\":1278:1287   */\n      dup2\n        /* \"#utility.yul\":1272:1276   */\n      dup2\n        /* \"#utility.yul\":1268:1288   */\n      sub\n        /* \"#utility.yul\":1264:1265   */\n      0x00\n        /* \"#utility.yul\":1253:1262   */\n      dup4\n        /* \"#utility.yul\":1249:1266   */\n      add\n        /* \"#utility.yul\":1242:1289   */\n      mstore\n        /* \"#utility.yul\":1306:1384   */\n      tag_106\n        /* \"#utility.yul\":1379:1383   */\n      dup2\n        /* \"#utility.yul\":1370:1376   */\n      dup5\n        /* \"#utility.yul\":1306:1384   */\n      tag_77\n      jump\t// in\n    tag_106:\n        /* \"#utility.yul\":1298:1384   */\n      swap1\n      pop\n        /* \"#utility.yul\":1078:1391   */\n      swap3\n      swap2\n      pop\n      pop\n      jump\t// out\n        /* \"#utility.yul\":1397:2112   */\n    tag_18:\n        /* \"#utility.yul\":1606:1610   */\n      0x00\n        /* \"#utility.yul\":1644:1646   */\n      0x60\n        /* \"#utility.yul\":1633:1642   */\n      dup3\n        /* \"#utility.yul\":1629:1647   */\n      add\n        /* \"#utility.yul\":1621:1647   */\n      swap1\n      pop\n        /* \"#utility.yul\":1693:1702   */\n      dup2\n        /* \"#utility.yul\":1687:1691   */\n      dup2\n        /* \"#utility.yul\":1683:1703   */\n      sub\n        /* \"#utility.yul\":1679:1680   */\n      0x00\n        /* \"#utility.yul\":1668:1677   */\n      dup4\n        /* \"#utility.yul\":1664:1681   */\n      add\n        /* \"#utility.yul\":1657:1704   */\n      mstore\n        /* \"#utility.yul\":1721:1799   */\n      tag_108\n        /* \"#utility.yul\":1794:1798   */\n      dup2\n        /* \"#utility.yul\":1785:1791   */\n      dup7\n        /* \"#utility.yul\":1721:1799   */\n      tag_77\n      jump\t// in\n    tag_108:\n        /* \"#utility.yul\":1713:1799   */\n      swap1\n      pop\n        /* \"#utility.yul\":1846:1855   */\n      dup2\n        /* \"#utility.yul\":1840:1844   */\n      dup2\n        /* \"#utility.yul\":1836:1856   */\n      sub\n        /* \"#utility.yul\":1831:1833   */\n      0x20\n        /* \"#utility.yul\":1820:1829   */\n      dup4\n        /* \"#utility.yul\":1816:1834   */\n      add\n        /* \"#utility.yul\":1809:1857   */\n      mstore\n        /* \"#utility.yul\":1874:1952   */\n      tag_109\n        /* \"#utility.yul\":1947:1951   */\n      dup2\n        /* \"#utility.yul\":1938:1944   */\n      dup6\n        /* \"#utility.yul\":1874:1952   */\n      tag_77\n      jump\t// in\n    tag_109:\n        /* \"#utility.yul\":1866:1952   */\n      swap1\n      pop\n        /* \"#utility.yul\":1999:2008   */\n      dup2\n        /* \"#utility.yul\":1993:1997   */\n      dup2\n        /* \"#utility.yul\":1989:2009   */\n      sub\n        /* \"#utility.yul\":1984:1986   */\n      0x40\n        /* \"#utility.yul\":1973:1982   */\n      dup4\n        /* \"#utility.yul\":1969:1987   */\n      add\n        /* \"#utility.yul\":1962:2010   */\n      mstore\n        /* \"#utility.yul\":2027:2105   */\n      tag_110\n        /* \"#utility.yul\":2100:2104   */\n      dup2\n        /* \"#utility.yul\":2091:2097   */\n      dup5\n        /* \"#utility.yul\":2027:2105   */\n      tag_77\n      jump\t// in\n    tag_110:\n        /* \"#utility.yul\":2019:2105   */\n      swap1\n      pop\n        /* \"#utility.yul\":1397:2112   */\n      swap5\n      swap4\n      pop\n      pop\n      pop\n      pop\n      jump\t// out\n        /* \"#utility.yul\":2118:2193   */\n    tag_78:\n        /* \"#utility.yul\":2151:2157   */\n      0x00\n        /* \"#utility.yul\":2184:2186   */\n      0x40\n        /* \"#utility.yul\":2178:2187   */\n      mload\n        /* \"#utility.yul\":2168:2187   */\n      swap1\n      pop\n        /* \"#utility.yul\":2118:2193   */\n      swap1\n      jump\t// out\n        /* \"#utility.yul\":2199:2316   */\n    tag_79:\n        /* \"#utility.yul\":2308:2309   */\n      0x00\n        /* \"#utility.yul\":2305:2306   */\n      dup1\n        /* \"#utility.yul\":2298:2310   */\n      revert\n        /* \"#utility.yul\":2322:2439   */\n    tag_80:\n        /* \"#utility.yul\":2431:2432   */\n      0x00\n        /* \"#utility.yul\":2428:2429   */\n      dup1\n        /* \"#utility.yul\":2421:2433   */\n      revert\n        /* \"#utility.yul\":2445:2562   */\n    tag_81:\n        /* \"#utility.yul\":2554:2555   */\n      0x00\n        /* \"#utility.yul\":2551:2552   */\n      dup1\n        /* \"#utility.yul\":2544:2556   */\n      revert\n        /* \"#utility.yul\":2568:2685   */\n    tag_82:\n        /* \"#utility.yul\":2677:2678   */\n      0x00\n        /* \"#utility.yul\":2674:2675   */\n      dup1\n        /* \"#utility.yul\":2667:2679   */\n      revert\n        /* \"#utility.yul\":2691:2871   */\n    tag_83:\n        /* \"#utility.yul\":2739:2816   */\n      0x4e487b7100000000000000000000000000000000000000000000000000000000\n        /* \"#utility.yul\":2736:2737   */\n      0x00\n        /* \"#utility.yul\":2729:2817   */\n      mstore\n        /* \"#utility.yul\":2836:2840   */\n      0x41\n        /* \"#utility.yul\":2833:2834   */\n      0x04\n        /* \"#utility.yul\":2826:2841   */\n      mstore\n        /* \"#utility.yul\":2860:2864   */\n      0x24\n        /* \"#utility.yul\":2857:2858   */\n      0x00\n        /* \"#utility.yul\":2850:2865   */\n      revert\n        /* \"#utility.yul\":2877:3158   */\n    tag_84:\n        /* \"#utility.yul\":2960:2987   */\n      tag_118\n        /* \"#utility.yul\":2982:2986   */\n      dup3\n        /* \"#utility.yul\":2960:2987   */\n      tag_76\n      jump\t// in\n    tag_118:\n        /* \"#utility.yul\":2952:2958   */\n      dup2\n        /* \"#utility.yul\":2948:2988   */\n      add\n        /* \"#utility.yul\":3090:3096   */\n      dup2\n        /* \"#utility.yul\":3078:3088   */\n      dup2\n        /* \"#utility.yul\":3075:3097   */\n      lt\n        /* \"#utility.yul\":3054:3072   */\n      0xffffffffffffffff\n        /* \"#utility.yul\":3042:3052   */\n      dup3\n        /* \"#utility.yul\":3039:3073   */\n      gt\n        /* \"#utility.yul\":3036:3098   */\n      or\n        /* \"#utility.yul\":3033:3121   */\n      iszero\n      tag_119\n      jumpi\n        /* \"#utility.yul\":3101:3119   */\n      tag_120\n      tag_83\n      jump\t// in\n    tag_120:\n        /* \"#utility.yul\":3033:3121   */\n    tag_119:\n        /* \"#utility.yul\":3141:3151   */\n      dup1\n        /* \"#utility.yul\":3137:3139   */\n      0x40\n        /* \"#utility.yul\":3130:3152   */\n      mstore\n        /* \"#utility.yul\":2920:3158   */\n      pop\n        /* \"#utility.yul\":2877:3158   */\n      pop\n      pop\n      jump\t// out\n        /* \"#utility.yul\":3164:3293   */\n    tag_85:\n        /* \"#utility.yul\":3198:3204   */\n      0x00\n        /* \"#utility.yul\":3225:3245   */\n      tag_122\n      tag_78\n      jump\t// in\n    tag_122:\n        /* \"#utility.yul\":3215:3245   */\n      swap1\n      pop\n        /* \"#utility.yul\":3254:3287   */\n      tag_123\n        /* \"#utility.yul\":3282:3286   */\n      dup3\n        /* \"#utility.yul\":3274:3280   */\n      dup3\n        /* \"#utility.yul\":3254:3287   */\n      tag_84\n      jump\t// in\n    tag_123:\n        /* \"#utility.yul\":3164:3293   */\n      swap2\n      swap1\n      pop\n      jump\t// out\n        /* \"#utility.yul\":3299:3607   */\n    tag_86:\n        /* \"#utility.yul\":3361:3365   */\n      0x00\n        /* \"#utility.yul\":3451:3469   */\n      0xffffffffffffffff\n        /* \"#utility.yul\":3443:3449   */\n      dup3\n        /* \"#utility.yul\":3440:3470   */\n      gt\n        /* \"#utility.yul\":3437:3493   */\n      iszero\n      tag_125\n      jumpi\n        /* \"#utility.yul\":3473:3491   */\n      tag_126\n      tag_83\n      jump\t// in\n    tag_126:\n        /* \"#utility.yul\":3437:3493   */\n    tag_125:\n        /* \"#utility.yul\":3511:3540   */\n      tag_127\n        /* \"#utility.yul\":3533:3539   */\n      dup3\n        /* \"#utility.yul\":3511:3540   */\n      tag_76\n      jump\t// in\n    tag_127:\n        /* \"#utility.yul\":3503:3540   */\n      swap1\n      pop\n        /* \"#utility.yul\":3595:3599   */\n      0x20\n        /* \"#utility.yul\":3589:3593   */\n      dup2\n        /* \"#utility.yul\":3585:3600   */\n      add\n        /* \"#utility.yul\":3577:3600   */\n      swap1\n      pop\n        /* \"#utility.yul\":3299:3607   */\n      swap2\n      swap1\n      pop\n      jump\t// out\n        /* \"#utility.yul\":3613:3767   */\n    tag_87:\n        /* \"#utility.yul\":3697:3703   */\n      dup3\n        /* \"#utility.yul\":3692:3695   */\n      dup2\n        /* \"#utility.yul\":3687:3690   */\n      dup4\n        /* \"#utility.yul\":3674:3704   */\n      calldatacopy\n        /* \"#utility.yul\":3759:3760   */\n      0x00\n        /* \"#utility.yul\":3750:3756   */\n      dup4\n        /* \"#utility.yul\":3745:3748   */\n      dup4\n        /* \"#utility.yul\":3741:3757   */\n      add\n        /* \"#utility.yul\":3734:3761   */\n      mstore\n        /* \"#utility.yul\":3613:3767   */\n      pop\n      pop\n      pop\n      jump\t// out\n        /* \"#utility.yul\":3773:4185   */\n    tag_88:\n        /* \"#utility.yul\":3851:3856   */\n      0x00\n        /* \"#utility.yul\":3876:3942   */\n      tag_130\n        /* \"#utility.yul\":3892:3941   */\n      tag_131\n        /* \"#utility.yul\":3934:3940   */\n      dup5\n        /* \"#utility.yul\":3892:3941   */\n      tag_86\n      jump\t// in\n    tag_131:\n        /* \"#utility.yul\":3876:3942   */\n      tag_85\n      jump\t// in\n    tag_130:\n        /* \"#utility.yul\":3867:3942   */\n      swap1\n      pop\n        /* \"#utility.yul\":3965:3971   */\n      dup3\n        /* \"#utility.yul\":3958:3963   */\n      dup2\n        /* \"#utility.yul\":3951:3972   */\n      mstore\n        /* \"#utility.yul\":4003:4007   */\n      0x20\n        /* \"#utility.yul\":3996:4001   */\n      dup2\n        /* \"#utility.yul\":3992:4008   */\n      add\n        /* \"#utility.yul\":4041:4044   */\n      dup5\n        /* \"#utility.yul\":4032:4038   */\n      dup5\n        /* \"#utility.yul\":4027:4030   */\n      dup5\n        /* \"#utility.yul\":4023:4039   */\n      add\n        /* \"#utility.yul\":4020:4045   */\n      gt\n        /* \"#utility.yul\":4017:4129   */\n      iszero\n      tag_132\n      jumpi\n        /* \"#utility.yul\":4048:4127   */\n      tag_133\n      tag_82\n      jump\t// in\n    tag_133:\n        /* \"#utility.yul\":4017:4129   */\n    tag_132:\n        /* \"#utility.yul\":4138:4179   */\n      tag_134\n        /* \"#utility.yul\":4172:4178   */\n      dup5\n        /* \"#utility.yul\":4167:4170   */\n      dup3\n        /* \"#utility.yul\":4162:4165   */\n      dup6\n        /* \"#utility.yul\":4138:4179   */\n      tag_87\n      jump\t// in\n    tag_134:\n        /* \"#utility.yul\":3857:4185   */\n      pop\n        /* \"#utility.yul\":3773:4185   */\n      swap4\n      swap3\n      pop\n      pop\n      pop\n      jump\t// out\n        /* \"#utility.yul\":4205:4545   */\n    tag_89:\n        /* \"#utility.yul\":4261:4266   */\n      0x00\n        /* \"#utility.yul\":4310:4313   */\n      dup3\n        /* \"#utility.yul\":4303:4307   */\n      0x1f\n        /* \"#utility.yul\":4295:4301   */\n      dup4\n        /* \"#utility.yul\":4291:4308   */\n      add\n        /* \"#utility.yul\":4287:4314   */\n      slt\n        /* \"#utility.yul\":4277:4399   */\n      tag_136\n      jumpi\n        /* \"#utility.yul\":4318:4397   */\n      tag_137\n      tag_81\n      jump\t// in\n    tag_137:\n        /* \"#utility.yul\":4277:4399   */\n    tag_136:\n        /* \"#utility.yul\":4435:4441   */\n      dup2\n        /* \"#utility.yul\":4422:4442   */\n      calldataload\n        /* \"#utility.yul\":4460:4539   */\n      tag_138\n        /* \"#utility.yul\":4535:4538   */\n      dup5\n        /* \"#utility.yul\":4527:4533   */\n      dup3\n        /* \"#utility.yul\":4520:4524   */\n      0x20\n        /* \"#utility.yul\":4512:4518   */\n      dup7\n        /* \"#utility.yul\":4508:4525   */\n      add\n        /* \"#utility.yul\":4460:4539   */\n      tag_88\n      jump\t// in\n    tag_138:\n        /* \"#utility.yul\":4451:4539   */\n      swap2\n      pop\n        /* \"#utility.yul\":4267:4545   */\n      pop\n        /* \"#utility.yul\":4205:4545   */\n      swap3\n      swap2\n      pop\n      pop\n      jump\t// out\n        /* \"#utility.yul\":4551:5710   */\n    tag_21:\n        /* \"#utility.yul\":4658:4664   */\n      0x00\n        /* \"#utility.yul\":4666:4672   */\n      dup1\n        /* \"#utility.yul\":4674:4680   */\n      0x00\n        /* \"#utility.yul\":4723:4725   */\n      0x60\n        /* \"#utility.yul\":4711:4720   */\n      dup5\n        /* \"#utility.yul\":4702:4709   */\n      dup7\n        /* \"#utility.yul\":4698:4721   */\n      sub\n        /* \"#utility.yul\":4694:4726   */\n      slt\n        /* \"#utility.yul\":4691:4810   */\n      iszero\n      tag_140\n      jumpi\n        /* \"#utility.yul\":4729:4808   */\n      tag_141\n      tag_79\n      jump\t// in\n    tag_141:\n        /* \"#utility.yul\":4691:4810   */\n    tag_140:\n        /* \"#utility.yul\":4877:4878   */\n      0x00\n        /* \"#utility.yul\":4866:4875   */\n      dup5\n        /* \"#utility.yul\":4862:4879   */\n      add\n        /* \"#utility.yul\":4849:4880   */\n      calldataload\n        /* \"#utility.yul\":4907:4925   */\n      0xffffffffffffffff\n        /* \"#utility.yul\":4899:4905   */\n      dup2\n        /* \"#utility.yul\":4896:4926   */\n      gt\n        /* \"#utility.yul\":4893:5010   */\n      iszero\n      tag_142\n      jumpi\n        /* \"#utility.yul\":4929:5008   */\n      tag_143\n      tag_80\n      jump\t// in\n    tag_143:\n        /* \"#utility.yul\":4893:5010   */\n    tag_142:\n        /* \"#utility.yul\":5034:5097   */\n      tag_144\n        /* \"#utility.yul\":5089:5096   */\n      dup7\n        /* \"#utility.yul\":5080:5086   */\n      dup3\n        /* \"#utility.yul\":5069:5078   */\n      dup8\n        /* \"#utility.yul\":5065:5087   */\n      add\n        /* \"#utility.yul\":5034:5097   */\n      tag_89\n      jump\t// in\n    tag_144:\n        /* \"#utility.yul\":5024:5097   */\n      swap4\n      pop\n        /* \"#utility.yul\":4820:5107   */\n      pop\n        /* \"#utility.yul\":5174:5176   */\n      0x20\n        /* \"#utility.yul\":5163:5172   */\n      dup5\n        /* \"#utility.yul\":5159:5177   */\n      add\n        /* \"#utility.yul\":5146:5178   */\n      calldataload\n        /* \"#utility.yul\":5205:5223   */\n      0xffffffffffffffff\n        /* \"#utility.yul\":5197:5203   */\n      dup2\n        /* \"#utility.yul\":5194:5224   */\n      gt\n        /* \"#utility.yul\":5191:5308   */\n      iszero\n      tag_145\n      jumpi\n        /* \"#utility.yul\":5227:5306   */\n      tag_146\n      tag_80\n      jump\t// in\n    tag_146:\n        /* \"#utility.yul\":5191:5308   */\n    tag_145:\n        /* \"#utility.yul\":5332:5395   */\n      tag_147\n        /* \"#utility.yul\":5387:5394   */\n      dup7\n        /* \"#utility.yul\":5378:5384   */\n      dup3\n        /* \"#utility.yul\":5367:5376   */\n      dup8\n        /* \"#utility.yul\":5363:5385   */\n      add\n        /* \"#utility.yul\":5332:5395   */\n      tag_89\n      jump\t// in\n    tag_147:\n        /* \"#utility.yul\":5322:5395   */\n      swap3\n      pop\n        /* \"#utility.yul\":5117:5405   */\n      pop\n        /* \"#utility.yul\":5472:5474   */\n      0x40\n        /* \"#utility.yul\":5461:5470   */\n      dup5\n        /* \"#utility.yul\":5457:5475   */\n      add\n        /* \"#utility.yul\":5444:5476   */\n      calldataload\n        /* \"#utility.yul\":5503:5521   */\n      0xffffffffffffffff\n        /* \"#utility.yul\":5495:5501   */\n      dup2\n        /* \"#utility.yul\":5492:5522   */\n      gt\n        /* \"#utility.yul\":5489:5606   */\n      iszero\n      tag_148\n      jumpi\n        /* \"#utility.yul\":5525:5604   */\n      tag_149\n      tag_80\n      jump\t// in\n    tag_149:\n        /* \"#utility.yul\":5489:5606   */\n    tag_148:\n        /* \"#utility.yul\":5630:5693   */\n      tag_150\n        /* \"#utility.yul\":5685:5692   */\n      dup7\n        /* \"#utility.yul\":5676:5682   */\n      dup3\n        /* \"#utility.yul\":5665:5674   */\n      dup8\n        /* \"#utility.yul\":5661:5683   */\n      add\n        /* \"#utility.yul\":5630:5693   */\n      tag_89\n      jump\t// in\n    tag_150:\n        /* \"#utility.yul\":5620:5693   */\n      swap2\n      pop\n        /* \"#utility.yul\":5415:5703   */\n      pop\n        /* \"#utility.yul\":4551:5710   */\n      swap3\n      pop\n      swap3\n      pop\n      swap3\n      jump\t// out\n        /* \"#utility.yul\":5716:5896   */\n    tag_90:\n        /* \"#utility.yul\":5764:5841   */\n      0x4e487b7100000000000000000000000000000000000000000000000000000000\n        /* \"#utility.yul\":5761:5762   */\n      0x00\n        /* \"#utility.yul\":5754:5842   */\n      mstore\n        /* \"#utility.yul\":5861:5865   */\n      0x22\n        /* \"#utility.yul\":5858:5859   */\n      0x04\n        /* \"#utility.yul\":5851:5866   */\n      mstore\n        /* \"#utility.yul\":5885:5889   */\n      0x24\n        /* \"#utility.yul\":5882:5883   */\n      0x00\n        /* \"#utility.yul\":5875:5890   */\n      revert\n        /* \"#utility.yul\":5902:6222   */\n    tag_27:\n        /* \"#utility.yul\":5946:5952   */\n      0x00\n        /* \"#utility.yul\":5983:5984   */\n      0x02\n        /* \"#utility.yul\":5977:5981   */\n      dup3\n        /* \"#utility.yul\":5973:5985   */\n      div\n        /* \"#utility.yul\":5963:5985   */\n      swap1\n      pop\n        /* \"#utility.yul\":6030:6031   */\n      0x01\n        /* \"#utility.yul\":6024:6028   */\n      dup3\n        /* \"#utility.yul\":6020:6032   */\n      and\n        /* \"#utility.yul\":6051:6069   */\n      dup1\n        /* \"#utility.yul\":6041:6122   */\n      tag_153\n      jumpi\n        /* \"#utility.yul\":6107:6111   */\n      0x7f\n        /* \"#utility.yul\":6099:6105   */\n      dup3\n        /* \"#utility.yul\":6095:6112   */\n      and\n        /* \"#utility.yul\":6085:6112   */\n      swap2\n      pop\n        /* \"#utility.yul\":6041:6122   */\n    tag_153:\n        /* \"#utility.yul\":6169:6171   */\n      0x20\n        /* \"#utility.yul\":6161:6167   */\n      dup3\n        /* \"#utility.yul\":6158:6172   */\n      lt\n        /* \"#utility.yul\":6138:6156   */\n      dup2\n        /* \"#utility.yul\":6135:6173   */\n      sub\n        /* \"#utility.yul\":6132:6216   */\n      tag_154\n      jumpi\n        /* \"#utility.yul\":6188:6206   */\n      tag_155\n      tag_90\n      jump\t// in\n    tag_155:\n        /* \"#utility.yul\":6132:6216   */\n    tag_154:\n        /* \"#utility.yul\":5953:6222   */\n      pop\n        /* \"#utility.yul\":5902:6222   */\n      swap2\n      swap1\n      pop\n      jump\t// out\n\n    auxdata: 0xa2646970667358221220159a7a9e3fc7e2a1418680d39f68bdbfc6035e35e5be6326218378c6c10b357e64736f6c634300080d0033\n}\n",
				"bytecode": {
					"linkReferences": {},
					"object": "608060405234801561001057600080fd5b506108d0806100206000396000f3fe608060405234801561001057600080fd5b50600436106100575760003560e01c80634b2c979c1461005c578063871c8c671461007a5780638cf3375d1461009857806390373d53146100b8578063be468181146100d4575b600080fd5b6100646100f2565b60405161007191906105dc565b60405180910390f35b610082610180565b60405161008f91906105dc565b60405180910390f35b6100a061020e565b6040516100af939291906105fe565b60405180910390f35b6100d260048036038101906100cd9190610793565b6103c8565b005b6100dc610412565b6040516100e991906105dc565b60405180910390f35b600080546100ff90610869565b80601f016020809104026020016040519081016040528092919081815260200182805461012b90610869565b80156101785780601f1061014d57610100808354040283529160200191610178565b820191906000526020600020905b81548152906001019060200180831161015b57829003601f168201915b505050505081565b6002805461018d90610869565b80601f01602080910402602001604051908101604052809291908181526020018280546101b990610869565b80156102065780601f106101db57610100808354040283529160200191610206565b820191906000526020600020905b8154815290600101906020018083116101e957829003601f168201915b505050505081565b606080606060026000600182805461022590610869565b80601f016020809104026020016040519081016040528092919081815260200182805461025190610869565b801561029e5780601f106102735761010080835404028352916020019161029e565b820191906000526020600020905b81548152906001019060200180831161028157829003601f168201915b505050505092508180546102b190610869565b80601f01602080910402602001604051908101604052809291908181526020018280546102dd90610869565b801561032a5780601f106102ff5761010080835404028352916020019161032a565b820191906000526020600020905b81548152906001019060200180831161030d57829003601f168201915b5050505050915080805461033d90610869565b80601f016020809104026020016040519081016040528092919081815260200182805461036990610869565b80156103b65780601f1061038b576101008083540402835291602001916103b6565b820191906000526020600020905b81548152906001019060200180831161039957829003601f168201915b50505050509050925092509250909192565b82600090805190602001906103de9291906104a0565b5081600190805190602001906103f59291906104a0565b50806002908051906020019061040c9291906104a0565b50505050565b6001805461041f90610869565b80601f016020809104026020016040519081016040528092919081815260200182805461044b90610869565b80156104985780601f1061046d57610100808354040283529160200191610498565b820191906000526020600020905b81548152906001019060200180831161047b57829003601f168201915b505050505081565b8280546104ac90610869565b90600052602060002090601f0160209004810192826104ce5760008555610515565b82601f106104e757805160ff1916838001178555610515565b82800160010185558215610515579182015b828111156105145782518255916020019190600101906104f9565b5b5090506105229190610526565b5090565b5b8082111561053f576000816000905550600101610527565b5090565b600081519050919050565b600082825260208201905092915050565b60005b8381101561057d578082015181840152602081019050610562565b8381111561058c576000848401525b50505050565b6000601f19601f8301169050919050565b60006105ae82610543565b6105b8818561054e565b93506105c881856020860161055f565b6105d181610592565b840191505092915050565b600060208201905081810360008301526105f681846105a3565b905092915050565b6000606082019050818103600083015261061881866105a3565b9050818103602083015261062c81856105a3565b9050818103604083015261064081846105a3565b9050949350505050565b6000604051905090565b600080fd5b600080fd5b600080fd5b600080fd5b7f4e487b7100000000000000000000000000000000000000000000000000000000600052604160045260246000fd5b6106a082610592565b810181811067ffffffffffffffff821117156106bf576106be610668565b5b80604052505050565b60006106d261064a565b90506106de8282610697565b919050565b600067ffffffffffffffff8211156106fe576106fd610668565b5b61070782610592565b9050602081019050919050565b82818337600083830152505050565b6000610736610731846106e3565b6106c8565b90508281526020810184848401111561075257610751610663565b5b61075d848285610714565b509392505050565b600082601f83011261077a5761077961065e565b5b813561078a848260208601610723565b91505092915050565b6000806000606084860312156107ac576107ab610654565b5b600084013567ffffffffffffffff8111156107ca576107c9610659565b5b6107d686828701610765565b935050602084013567ffffffffffffffff8111156107f7576107f6610659565b5b61080386828701610765565b925050604084013567ffffffffffffffff81111561082457610823610659565b5b61083086828701610765565b9150509250925092565b7f4e487b7100000000000000000000000000000000000000000000000000000000600052602260045260246000fd5b6000600282049050600182168061088157607f821691505b6020821081036108945761089361083a565b5b5091905056fea2646970667358221220159a7a9e3fc7e2a1418680d39f68bdbfc6035e35e5be6326218378c6c10b357e64736f6c634300080d0033",
					"opcodes": "PUSH1 0x80 PUSH1 0x40 MSTORE CALLVALUE DUP1 ISZERO PUSH2 0x10 JUMPI PUSH1 0x0 DUP1 REVERT JUMPDEST POP PUSH2 0x8D0 DUP1 PUSH2 0x20 PUSH1 0x0 CODECOPY PUSH1 0x0 RETURN INVALID PUSH1 0x80 PUSH1 0x40 MSTORE CALLVALUE DUP1 ISZERO PUSH2 0x10 JUMPI PUSH1 0x0 DUP1 REVERT JUMPDEST POP PUSH1 0x4 CALLDATASIZE LT PUSH2 0x57 JUMPI PUSH1 0x0 CALLDATALOAD PUSH1 0xE0 SHR DUP1 PUSH4 0x4B2C979C EQ PUSH2 0x5C JUMPI DUP1 PUSH4 0x871C8C67 EQ PUSH2 0x7A JUMPI DUP1 PUSH4 0x8CF3375D EQ PUSH2 0x98 JUMPI DUP1 PUSH4 0x90373D53 EQ PUSH2 0xB8 JUMPI DUP1 PUSH4 0xBE468181 EQ PUSH2 0xD4 JUMPI JUMPDEST PUSH1 0x0 DUP1 REVERT JUMPDEST PUSH2 0x64 PUSH2 0xF2 JUMP JUMPDEST PUSH1 0x40 MLOAD PUSH2 0x71 SWAP2 SWAP1 PUSH2 0x5DC JUMP JUMPDEST PUSH1 0x40 MLOAD DUP1 SWAP2 SUB SWAP1 RETURN JUMPDEST PUSH2 0x82 PUSH2 0x180 JUMP JUMPDEST PUSH1 0x40 MLOAD PUSH2 0x8F SWAP2 SWAP1 PUSH2 0x5DC JUMP JUMPDEST PUSH1 0x40 MLOAD DUP1 SWAP2 SUB SWAP1 RETURN JUMPDEST PUSH2 0xA0 PUSH2 0x20E JUMP JUMPDEST PUSH1 0x40 MLOAD PUSH2 0xAF SWAP4 SWAP3 SWAP2 SWAP1 PUSH2 0x5FE JUMP JUMPDEST PUSH1 0x40 MLOAD DUP1 SWAP2 SUB SWAP1 RETURN JUMPDEST PUSH2 0xD2 PUSH1 0x4 DUP1 CALLDATASIZE SUB DUP2 ADD SWAP1 PUSH2 0xCD SWAP2 SWAP1 PUSH2 0x793 JUMP JUMPDEST PUSH2 0x3C8 JUMP JUMPDEST STOP JUMPDEST PUSH2 0xDC PUSH2 0x412 JUMP JUMPDEST PUSH1 0x40 MLOAD PUSH2 0xE9 SWAP2 SWAP1 PUSH2 0x5DC JUMP JUMPDEST PUSH1 0x40 MLOAD DUP1 SWAP2 SUB SWAP1 RETURN JUMPDEST PUSH1 0x0 DUP1 SLOAD PUSH2 0xFF SWAP1 PUSH2 0x869 JUMP JUMPDEST DUP1 PUSH1 0x1F ADD PUSH1 0x20 DUP1 SWAP2 DIV MUL PUSH1 0x20 ADD PUSH1 0x40 MLOAD SWAP1 DUP2 ADD PUSH1 0x40 MSTORE DUP1 SWAP3 SWAP2 SWAP1 DUP2 DUP2 MSTORE PUSH1 0x20 ADD DUP3 DUP1 SLOAD PUSH2 0x12B SWAP1 PUSH2 0x869 JUMP JUMPDEST DUP1 ISZERO PUSH2 0x178 JUMPI DUP1 PUSH1 0x1F LT PUSH2 0x14D JUMPI PUSH2 0x100 DUP1 DUP4 SLOAD DIV MUL DUP4 MSTORE SWAP2 PUSH1 0x20 ADD SWAP2 PUSH2 0x178 JUMP JUMPDEST DUP3 ADD SWAP2 SWAP1 PUSH1 0x0 MSTORE PUSH1 0x20 PUSH1 0x0 KECCAK256 SWAP1 JUMPDEST DUP2 SLOAD DUP2 MSTORE SWAP1 PUSH1 0x1 ADD SWAP1 PUSH1 0x20 ADD DUP1 DUP4 GT PUSH2 0x15B JUMPI DUP3 SWAP1 SUB PUSH1 0x1F AND DUP3 ADD SWAP2 JUMPDEST POP POP POP POP POP DUP2 JUMP JUMPDEST PUSH1 0x2 DUP1 SLOAD PUSH2 0x18D SWAP1 PUSH2 0x869 JUMP JUMPDEST DUP1 PUSH1 0x1F ADD PUSH1 0x20 DUP1 SWAP2 DIV MUL PUSH1 0x20 ADD PUSH1 0x40 MLOAD SWAP1 DUP2 ADD PUSH1 0x40 MSTORE DUP1 SWAP3 SWAP2 SWAP1 DUP2 DUP2 MSTORE PUSH1 0x20 ADD DUP3 DUP1 SLOAD PUSH2 0x1B9 SWAP1 PUSH2 0x869 JUMP JUMPDEST DUP1 ISZERO PUSH2 0x206 JUMPI DUP1 PUSH1 0x1F LT PUSH2 0x1DB JUMPI PUSH2 0x100 DUP1 DUP4 SLOAD DIV MUL DUP4 MSTORE SWAP2 PUSH1 0x20 ADD SWAP2 PUSH2 0x206 JUMP JUMPDEST DUP3 ADD SWAP2 SWAP1 PUSH1 0x0 MSTORE PUSH1 0x20 PUSH1 0x0 KECCAK256 SWAP1 JUMPDEST DUP2 SLOAD DUP2 MSTORE SWAP1 PUSH1 0x1 ADD SWAP1 PUSH1 0x20 ADD DUP1 DUP4 GT PUSH2 0x1E9 JUMPI DUP3 SWAP1 SUB PUSH1 0x1F AND DUP3 ADD SWAP2 JUMPDEST POP POP POP POP POP DUP2 JUMP JUMPDEST PUSH1 0x60 DUP1 PUSH1 0x60 PUSH1 0x2 PUSH1 0x0 PUSH1 0x1 DUP3 DUP1 SLOAD PUSH2 0x225 SWAP1 PUSH2 0x869 JUMP JUMPDEST DUP1 PUSH1 0x1F ADD PUSH1 0x20 DUP1 SWAP2 DIV MUL PUSH1 0x20 ADD PUSH1 0x40 MLOAD SWAP1 DUP2 ADD PUSH1 0x40 MSTORE DUP1 SWAP3 SWAP2 SWAP1 DUP2 DUP2 MSTORE PUSH1 0x20 ADD DUP3 DUP1 SLOAD PUSH2 0x251 SWAP1 PUSH2 0x869 JUMP JUMPDEST DUP1 ISZERO PUSH2 0x29E JUMPI DUP1 PUSH1 0x1F LT PUSH2 0x273 JUMPI PUSH2 0x100 DUP1 DUP4 SLOAD DIV MUL DUP4 MSTORE SWAP2 PUSH1 0x20 ADD SWAP2 PUSH2 0x29E JUMP JUMPDEST DUP3 ADD SWAP2 SWAP1 PUSH1 0x0 MSTORE PUSH1 0x20 PUSH1 0x0 KECCAK256 SWAP1 JUMPDEST DUP2 SLOAD DUP2 MSTORE SWAP1 PUSH1 0x1 ADD SWAP1 PUSH1 0x20 ADD DUP1 DUP4 GT PUSH2 0x281 JUMPI DUP3 SWAP1 SUB PUSH1 0x1F AND DUP3 ADD SWAP2 JUMPDEST POP POP POP POP POP SWAP3 POP DUP2 DUP1 SLOAD PUSH2 0x2B1 SWAP1 PUSH2 0x869 JUMP JUMPDEST DUP1 PUSH1 0x1F ADD PUSH1 0x20 DUP1 SWAP2 DIV MUL PUSH1 0x20 ADD PUSH1 0x40 MLOAD SWAP1 DUP2 ADD PUSH1 0x40 MSTORE DUP1 SWAP3 SWAP2 SWAP1 DUP2 DUP2 MSTORE PUSH1 0x20 ADD DUP3 DUP1 SLOAD PUSH2 0x2DD SWAP1 PUSH2 0x869 JUMP JUMPDEST DUP1 ISZERO PUSH2 0x32A JUMPI DUP1 PUSH1 0x1F LT PUSH2 0x2FF JUMPI PUSH2 0x100 DUP1 DUP4 SLOAD DIV MUL DUP4 MSTORE SWAP2 PUSH1 0x20 ADD SWAP2 PUSH2 0x32A JUMP JUMPDEST DUP3 ADD SWAP2 SWAP1 PUSH1 0x0 MSTORE PUSH1 0x20 PUSH1 0x0 KECCAK256 SWAP1 JUMPDEST DUP2 SLOAD DUP2 MSTORE SWAP1 PUSH1 0x1 ADD SWAP1 PUSH1 0x20 ADD DUP1 DUP4 GT PUSH2 0x30D JUMPI DUP3 SWAP1 SUB PUSH1 0x1F AND DUP3 ADD SWAP2 JUMPDEST POP POP POP POP POP SWAP2 POP DUP1 DUP1 SLOAD PUSH2 0x33D SWAP1 PUSH2 0x869 JUMP JUMPDEST DUP1 PUSH1 0x1F ADD PUSH1 0x20 DUP1 SWAP2 DIV MUL PUSH1 0x20 ADD PUSH1 0x40 MLOAD SWAP1 DUP2 ADD PUSH1 0x40 MSTORE DUP1 SWAP3 SWAP2 SWAP1 DUP2 DUP2 MSTORE PUSH1 0x20 ADD DUP3 DUP1 SLOAD PUSH2 0x369 SWAP1 PUSH2 0x869 JUMP JUMPDEST DUP1 ISZERO PUSH2 0x3B6 JUMPI DUP1 PUSH1 0x1F LT PUSH2 0x38B JUMPI PUSH2 0x100 DUP1 DUP4 SLOAD DIV MUL DUP4 MSTORE SWAP2 PUSH1 0x20 ADD SWAP2 PUSH2 0x3B6 JUMP JUMPDEST DUP3 ADD SWAP2 SWAP1 PUSH1 0x0 MSTORE PUSH1 0x20 PUSH1 0x0 KECCAK256 SWAP1 JUMPDEST DUP2 SLOAD DUP2 MSTORE SWAP1 PUSH1 0x1 ADD SWAP1 PUSH1 0x20 ADD DUP1 DUP4 GT PUSH2 0x399 JUMPI DUP3 SWAP1 SUB PUSH1 0x1F AND DUP3 ADD SWAP2 JUMPDEST POP POP POP POP POP SWAP1 POP SWAP3 POP SWAP3 POP SWAP3 POP SWAP1 SWAP2 SWAP3 JUMP JUMPDEST DUP3 PUSH1 0x0 SWAP1 DUP1 MLOAD SWAP1 PUSH1 0x20 ADD SWAP1 PUSH2 0x3DE SWAP3 SWAP2 SWAP1 PUSH2 0x4A0 JUMP JUMPDEST POP DUP2 PUSH1 0x1 SWAP1 DUP1 MLOAD SWAP1 PUSH1 0x20 ADD SWAP1 PUSH2 0x3F5 SWAP3 SWAP2 SWAP1 PUSH2 0x4A0 JUMP JUMPDEST POP DUP1 PUSH1 0x2 SWAP1 DUP1 MLOAD SWAP1 PUSH1 0x20 ADD SWAP1 PUSH2 0x40C SWAP3 SWAP2 SWAP1 PUSH2 0x4A0 JUMP JUMPDEST POP POP POP POP JUMP JUMPDEST PUSH1 0x1 DUP1 SLOAD PUSH2 0x41F SWAP1 PUSH2 0x869 JUMP JUMPDEST DUP1 PUSH1 0x1F ADD PUSH1 0x20 DUP1 SWAP2 DIV MUL PUSH1 0x20 ADD PUSH1 0x40 MLOAD SWAP1 DUP2 ADD PUSH1 0x40 MSTORE DUP1 SWAP3 SWAP2 SWAP1 DUP2 DUP2 MSTORE PUSH1 0x20 ADD DUP3 DUP1 SLOAD PUSH2 0x44B SWAP1 PUSH2 0x869 JUMP JUMPDEST DUP1 ISZERO PUSH2 0x498 JUMPI DUP1 PUSH1 0x1F LT PUSH2 0x46D JUMPI PUSH2 0x100 DUP1 DUP4 SLOAD DIV MUL DUP4 MSTORE SWAP2 PUSH1 0x20 ADD SWAP2 PUSH2 0x498 JUMP JUMPDEST DUP3 ADD SWAP2 SWAP1 PUSH1 0x0 MSTORE PUSH1 0x20 PUSH1 0x0 KECCAK256 SWAP1 JUMPDEST DUP2 SLOAD DUP2 MSTORE SWAP1 PUSH1 0x1 ADD SWAP1 PUSH1 0x20 ADD DUP1 DUP4 GT PUSH2 0x47B JUMPI DUP3 SWAP1 SUB PUSH1 0x1F AND DUP3 ADD SWAP2 JUMPDEST POP POP POP POP POP DUP2 JUMP JUMPDEST DUP3 DUP1 SLOAD PUSH2 0x4AC SWAP1 PUSH2 0x869 JUMP JUMPDEST SWAP1 PUSH1 0x0 MSTORE PUSH1 0x20 PUSH1 0x0 KECCAK256 SWAP1 PUSH1 0x1F ADD PUSH1 0x20 SWAP1 DIV DUP2 ADD SWAP3 DUP3 PUSH2 0x4CE JUMPI PUSH1 0x0 DUP6 SSTORE PUSH2 0x515 JUMP JUMPDEST DUP3 PUSH1 0x1F LT PUSH2 0x4E7 JUMPI DUP1 MLOAD PUSH1 0xFF NOT AND DUP4 DUP1 ADD OR DUP6 SSTORE PUSH2 0x515 JUMP JUMPDEST DUP3 DUP1 ADD PUSH1 0x1 ADD DUP6 SSTORE DUP3 ISZERO PUSH2 0x515 JUMPI SWAP2 DUP3 ADD JUMPDEST DUP3 DUP2 GT ISZERO PUSH2 0x514 JUMPI DUP3 MLOAD DUP3 SSTORE SWAP2 PUSH1 0x20 ADD SWAP2 SWAP1 PUSH1 0x1 ADD SWAP1 PUSH2 0x4F9 JUMP JUMPDEST JUMPDEST POP SWAP1 POP PUSH2 0x522 SWAP2 SWAP1 PUSH2 0x526 JUMP JUMPDEST POP SWAP1 JUMP JUMPDEST JUMPDEST DUP1 DUP3 GT ISZERO PUSH2 0x53F JUMPI PUSH1 0x0 DUP2 PUSH1 0x0 SWAP1 SSTORE POP PUSH1 0x1 ADD PUSH2 0x527 JUMP JUMPDEST POP SWAP1 JUMP JUMPDEST PUSH1 0x0 DUP2 MLOAD SWAP1 POP SWAP2 SWAP1 POP JUMP JUMPDEST PUSH1 0x0 DUP3 DUP3 MSTORE PUSH1 0x20 DUP3 ADD SWAP1 POP SWAP3 SWAP2 POP POP JUMP JUMPDEST PUSH1 0x0 JUMPDEST DUP4 DUP2 LT ISZERO PUSH2 0x57D JUMPI DUP1 DUP3 ADD MLOAD DUP2 DUP5 ADD MSTORE PUSH1 0x20 DUP2 ADD SWAP1 POP PUSH2 0x562 JUMP JUMPDEST DUP4 DUP2 GT ISZERO PUSH2 0x58C JUMPI PUSH1 0x0 DUP5 DUP5 ADD MSTORE JUMPDEST POP POP POP POP JUMP JUMPDEST PUSH1 0x0 PUSH1 0x1F NOT PUSH1 0x1F DUP4 ADD AND SWAP1 POP SWAP2 SWAP1 POP JUMP JUMPDEST PUSH1 0x0 PUSH2 0x5AE DUP3 PUSH2 0x543 JUMP JUMPDEST PUSH2 0x5B8 DUP2 DUP6 PUSH2 0x54E JUMP JUMPDEST SWAP4 POP PUSH2 0x5C8 DUP2 DUP6 PUSH1 0x20 DUP7 ADD PUSH2 0x55F JUMP JUMPDEST PUSH2 0x5D1 DUP2 PUSH2 0x592 JUMP JUMPDEST DUP5 ADD SWAP2 POP POP SWAP3 SWAP2 POP POP JUMP JUMPDEST PUSH1 0x0 PUSH1 0x20 DUP3 ADD SWAP1 POP DUP2 DUP2 SUB PUSH1 0x0 DUP4 ADD MSTORE PUSH2 0x5F6 DUP2 DUP5 PUSH2 0x5A3 JUMP JUMPDEST SWAP1 POP SWAP3 SWAP2 POP POP JUMP JUMPDEST PUSH1 0x0 PUSH1 0x60 DUP3 ADD SWAP1 POP DUP2 DUP2 SUB PUSH1 0x0 DUP4 ADD MSTORE PUSH2 0x618 DUP2 DUP7 PUSH2 0x5A3 JUMP JUMPDEST SWAP1 POP DUP2 DUP2 SUB PUSH1 0x20 DUP4 ADD MSTORE PUSH2 0x62C DUP2 DUP6 PUSH2 0x5A3 JUMP JUMPDEST SWAP1 POP DUP2 DUP2 SUB PUSH1 0x40 DUP4 ADD MSTORE PUSH2 0x640 DUP2 DUP5 PUSH2 0x5A3 JUMP JUMPDEST SWAP1 POP SWAP5 SWAP4 POP POP POP POP JUMP JUMPDEST PUSH1 0x0 PUSH1 0x40 MLOAD SWAP1 POP SWAP1 JUMP JUMPDEST PUSH1 0x0 DUP1 REVERT JUMPDEST PUSH1 0x0 DUP1 REVERT JUMPDEST PUSH1 0x0 DUP1 REVERT JUMPDEST PUSH1 0x0 DUP1 REVERT JUMPDEST PUSH32 0x4E487B7100000000000000000000000000000000000000000000000000000000 PUSH1 0x0 MSTORE PUSH1 0x41 PUSH1 0x4 MSTORE PUSH1 0x24 PUSH1 0x0 REVERT JUMPDEST PUSH2 0x6A0 DUP3 PUSH2 0x592 JUMP JUMPDEST DUP2 ADD DUP2 DUP2 LT PUSH8 0xFFFFFFFFFFFFFFFF DUP3 GT OR ISZERO PUSH2 0x6BF JUMPI PUSH2 0x6BE PUSH2 0x668 JUMP JUMPDEST JUMPDEST DUP1 PUSH1 0x40 MSTORE POP POP POP JUMP JUMPDEST PUSH1 0x0 PUSH2 0x6D2 PUSH2 0x64A JUMP JUMPDEST SWAP1 POP PUSH2 0x6DE DUP3 DUP3 PUSH2 0x697 JUMP JUMPDEST SWAP2 SWAP1 POP JUMP JUMPDEST PUSH1 0x0 PUSH8 0xFFFFFFFFFFFFFFFF DUP3 GT ISZERO PUSH2 0x6FE JUMPI PUSH2 0x6FD PUSH2 0x668 JUMP JUMPDEST JUMPDEST PUSH2 0x707 DUP3 PUSH2 0x592 JUMP JUMPDEST SWAP1 POP PUSH1 0x20 DUP2 ADD SWAP1 POP SWAP2 SWAP1 POP JUMP JUMPDEST DUP3 DUP2 DUP4 CALLDATACOPY PUSH1 0x0 DUP4 DUP4 ADD MSTORE POP POP POP JUMP JUMPDEST PUSH1 0x0 PUSH2 0x736 PUSH2 0x731 DUP5 PUSH2 0x6E3 JUMP JUMPDEST PUSH2 0x6C8 JUMP JUMPDEST SWAP1 POP DUP3 DUP2 MSTORE PUSH1 0x20 DUP2 ADD DUP5 DUP5 DUP5 ADD GT ISZERO PUSH2 0x752 JUMPI PUSH2 0x751 PUSH2 0x663 JUMP JUMPDEST JUMPDEST PUSH2 0x75D DUP5 DUP3 DUP6 PUSH2 0x714 JUMP JUMPDEST POP SWAP4 SWAP3 POP POP POP JUMP JUMPDEST PUSH1 0x0 DUP3 PUSH1 0x1F DUP4 ADD SLT PUSH2 0x77A JUMPI PUSH2 0x779 PUSH2 0x65E JUMP JUMPDEST JUMPDEST DUP2 CALLDATALOAD PUSH2 0x78A DUP5 DUP3 PUSH1 0x20 DUP7 ADD PUSH2 0x723 JUMP JUMPDEST SWAP2 POP POP SWAP3 SWAP2 POP POP JUMP JUMPDEST PUSH1 0x0 DUP1 PUSH1 0x0 PUSH1 0x60 DUP5 DUP7 SUB SLT ISZERO PUSH2 0x7AC JUMPI PUSH2 0x7AB PUSH2 0x654 JUMP JUMPDEST JUMPDEST PUSH1 0x0 DUP5 ADD CALLDATALOAD PUSH8 0xFFFFFFFFFFFFFFFF DUP2 GT ISZERO PUSH2 0x7CA JUMPI PUSH2 0x7C9 PUSH2 0x659 JUMP JUMPDEST JUMPDEST PUSH2 0x7D6 DUP7 DUP3 DUP8 ADD PUSH2 0x765 JUMP JUMPDEST SWAP4 POP POP PUSH1 0x20 DUP5 ADD CALLDATALOAD PUSH8 0xFFFFFFFFFFFFFFFF DUP2 GT ISZERO PUSH2 0x7F7 JUMPI PUSH2 0x7F6 PUSH2 0x659 JUMP JUMPDEST JUMPDEST PUSH2 0x803 DUP7 DUP3 DUP8 ADD PUSH2 0x765 JUMP JUMPDEST SWAP3 POP POP PUSH1 0x40 DUP5 ADD CALLDATALOAD PUSH8 0xFFFFFFFFFFFFFFFF DUP2 GT ISZERO PUSH2 0x824 JUMPI PUSH2 0x823 PUSH2 0x659 JUMP JUMPDEST JUMPDEST PUSH2 0x830 DUP7 DUP3 DUP8 ADD PUSH2 0x765 JUMP JUMPDEST SWAP2 POP POP SWAP3 POP SWAP3 POP SWAP3 JUMP JUMPDEST PUSH32 0x4E487B7100000000000000000000000000000000000000000000000000000000 PUSH1 0x0 MSTORE PUSH1 0x22 PUSH1 0x4 MSTORE PUSH1 0x24 PUSH1 0x0 REVERT JUMPDEST PUSH1 0x0 PUSH1 0x2 DUP3 DIV SWAP1 POP PUSH1 0x1 DUP3 AND DUP1 PUSH2 0x881 JUMPI PUSH1 0x7F DUP3 AND SWAP2 POP JUMPDEST PUSH1 0x20 DUP3 LT DUP2 SUB PUSH2 0x894 JUMPI PUSH2 0x893 PUSH2 0x83A JUMP JUMPDEST JUMPDEST POP SWAP2 SWAP1 POP JUMP INVALID LOG2 PUSH5 0x6970667358 0x22 SLT KECCAK256 ISZERO SWAP11 PUSH27 0x9E3FC7E2A1418680D39F68BDBFC6035E35E5BE6326218378C6C10B CALLDATALOAD PUSH31 0x64736F6C634300080D00330000000000000000000000000000000000000000 "
				},
				"gasEstimates": {
					"creation": {
						"codeDepositCost": "451200",
						"executionCost": "486",
						"totalCost": "451686"
					},
					"external": {
						"getPet()": "infinite",
						"petAge()": "infinite",
						"petName()": "infinite",
						"petOwner()": "infinite",
						"setPet(string,string,string)": "infinite"
					}
				},
				"methodIdentifiers": {
					"getPet()": "8cf3375d",
					"petAge()": "871c8c67",
					"petName()": "4b2c979c",
					"petOwner()": "be468181",
					"setPet(string,string,string)": "90373d53"
				}
			},
			"storageLayout": {
				"storage": [
					{
						"astId": 3,
						"contract": "contracts/Pet_Contract.sol:Pet_Contract",
						"label": "petName",
						"offset": 0,
						"slot": "0",
						"type": "t_string_storage"
					},
					{
						"astId": 5,
						"contract": "contracts/Pet_Contract.sol:Pet_Contract",
						"label": "petOwner",
						"offset": 0,
						"slot": "1",
						"type": "t_string_storage"
					},
					{
						"astId": 7,
						"contract": "contracts/Pet_Contract.sol:Pet_Contract",
						"label": "petAge",
						"offset": 0,
						"slot": "2",
						"type": "t_string_storage"
					}
				],
				"types": {
					"t_string_storage": {
						"encoding": "bytes",
						"label": "string",
						"numberOfBytes": "32"
					}
				}
			},
			"userdoc": {
				"kind": "user",
				"methods": {},
				"version": 1
			}
		}
	}
}