{
	"contracts/Pet_Contract.sol": {
		"Pet_Contract": {
			"abi": [
				{
					"inputs": [],
					"name": "getPet",
					"outputs": [
						{
							"internalType": "string",
							"name": "",
							"type": "string"
						},
						{
							"internalType": "string",
							"name": "",
							"type": "string"
						},
						{
							"internalType": "string",
							"name": "",
							"type": "string"
						}
					],
					"stateMutability": "view",
					"type": "function"
				},
				{
					"inputs": [],
					"name": "petAge",
					"outputs": [
						{
							"internalType": "string",
							"name": "",
							"type": "string"
						}
					],
					"stateMutability": "view",
					"type": "function"
				},
				{
					"inputs": [],
					"name": "petName",
					"outputs": [
						{
							"internalType": "string",
							"name": "",
							"type": "string"
						}
					],
					"stateMutability": "view",
					"type": "function"
				},
				{
					"inputs": [],
					"name": "petOwner",
					"outputs": [
						{
							"internalType": "string",
							"name": "",
							"type": "string"
						}
					],
					"stateMutability": "view",
					"type": "function"
				},
				{
					"inputs": [
						{
							"internalType": "string",
							"name": "newPetName",
							"type": "string"
						},
						{
							"internalType": "string",
							"name": "newPetOwner",
							"type": "string"
						},
						{
							"internalType": "string",
							"name": "newPetAge",
							"type": "string"
						}
					],
					"name": "setPet",
					"outputs": [],
					"stateMutability": "nonpayable",
					"type": "function"
				}
			],
			"devdoc": {
				"kind": "dev",
				"methods": {},
				"version": 1
			},
			"evm": {
				"assembly": "    /* \"contracts/Pet_Contract.sol\":64:734  contract Pet_Contract{... */\n  mstore(0x40, 0x80)\n  callvalue\n  dup1\n  iszero\n  tag_1\n  jumpi\n  0x00\n  dup1\n  revert\ntag_1:\n  pop\n  dataSize(sub_0)\n  dup1\n  dataOffset(sub_0)\n  0x00\n  codecopy\n  0x00\n  return\nstop\n\nsub_0: assembly {\n        /* \"contracts/Pet_Contract.sol\":64:734  contract Pet_Contract{... */\n      mstore(0x40, 0x80)\n      callvalue\n      dup1\n      iszero\n      tag_1\n      jumpi\n      0x00\n      dup1\n      revert\n    tag_1:\n      pop\n      jumpi(tag_2, lt(calldatasize, 0x04))\n      shr(0xe0, calldataload(0x00))\n      dup1\n      0x4b2c979c\n      eq\n      tag_3\n      jumpi\n      dup1\n      0x871c8c67\n      eq\n      tag_4\n      jumpi\n      dup1\n      0x8cf3375d\n      eq\n      tag_5\n      jumpi\n      dup1\n      0x90373d53\n      eq\n      tag_6\n      jumpi\n      dup1\n      0xbe468181\n      eq\n      tag_7\n      jumpi\n    tag_2:\n      0x00\n      dup1\n      revert\n        /* \"contracts/Pet_Contract.sol\":150:171  string public petName */\n    tag_3:\n      tag_8\n      tag_9\n      jump\t// in\n    tag_8:\n      mload(0x40)\n      tag_10\n      swap2\n      swap1\n      tag_11\n      jump\t// in\n    tag_10:\n      mload(0x40)\n      dup1\n      swap2\n      sub\n      swap1\n      return\n        /* \"contracts/Pet_Contract.sol\":207:227  string public petAge */\n    tag_4:\n      tag_12\n      tag_13\n      jump\t// in\n    tag_12:\n      mload(0x40)\n      tag_14\n      swap2\n      swap1\n      tag_11\n      jump\t// in\n    tag_14:\n      mload(0x40)\n      dup1\n      swap2\n      sub\n      swap1\n      return\n        /* \"contracts/Pet_Contract.sol\":559:731  function getPet() public view returns (... */\n    tag_5:\n      tag_15\n      tag_16\n      jump\t// in\n    tag_15:\n      mload(0x40)\n      tag_17\n      swap4\n      swap3\n      swap2\n      swap1\n      tag_18\n      jump\t// in\n    tag_17:\n      mload(0x40)\n      dup1\n      swap2\n      sub\n      swap1\n      return\n        /* \"contracts/Pet_Contract.sol\":274:510  function setPet( ... */\n    tag_6:\n      tag_19\n      0x04\n      dup1\n      calldatasize\n      sub\n      dup2\n      add\n      swap1\n      tag_20\n      swap2\n      swap1\n      tag_21\n      jump\t// in\n    tag_20:\n      tag_22\n      jump\t// in\n    tag_19:\n      stop\n        /* \"contracts/Pet_Contract.sol\":178:200  string public petOwner */\n    tag_7:\n      tag_23\n      tag_24\n      jump\t// in\n    tag_23:\n      mload(0x40)\n      tag_25\n      swap2\n      swap1\n      tag_11\n      jump\t// in\n    tag_25:\n      mload(0x40)\n      dup1\n      swap2\n      sub\n      swap1\n      return\n        /* \"contracts/Pet_Contract.sol\":150:171  string public petName */\n    tag_9:\n      0x00\n      dup1\n      sload\n      tag_26\n      swap1\n      tag_27\n      jump\t// in\n    tag_26:\n      dup1\n      0x1f\n      add\n      0x20\n      dup1\n      swap2\n      div\n      mul\n      0x20\n      add\n      mload(0x40)\n      swap1\n      dup2\n      add\n      0x40\n      mstore\n      dup1\n      swap3\n      swap2\n      swap1\n      dup2\n      dup2\n      mstore\n      0x20\n      add\n      dup3\n      dup1\n      sload\n      tag_28\n      swap1\n      tag_27\n      jump\t// in\n    tag_28:\n      dup1\n      iszero\n      tag_29\n      jumpi\n      dup1\n      0x1f\n      lt\n      tag_30\n      jumpi\n      0x0100\n      dup1\n      dup4\n      sload\n      div\n      mul\n      dup4\n      mstore\n      swap2\n      0x20\n      add\n      swap2\n      jump(tag_29)\n    tag_30:\n      dup3\n      add\n      swap2\n      swap1\n      0x00\n      mstore\n      keccak256(0x00, 0x20)\n      swap1\n    tag_31:\n      dup2\n      sload\n      dup2\n      mstore\n      swap1\n      0x01\n      add\n      swap1\n      0x20\n      add\n      dup1\n      dup4\n      gt\n      tag_31\n      jumpi\n      dup3\n      swap1\n      sub\n      0x1f\n      and\n      dup3\n      add\n      swap2\n    tag_29:\n      pop\n      pop\n      pop\n      pop\n      pop\n      dup2\n      jump\t// out\n        /* \"contracts/Pet_Contract.sol\":207:227  string public petAge */\n    tag_13:\n      0x02\n      dup1\n      sload\n      tag_32\n      swap1\n      tag_27\n      jump\t// in\n    tag_32:\n      dup1\n      0x1f\n      add\n      0x20\n      dup1\n      swap2\n      div\n      mul\n      0x20\n      add\n      mload(0x40)\n      swap1\n      dup2\n      add\n      0x40\n      mstore\n      dup1\n      swap3\n      swap2\n      swap1\n      dup2\n      dup2\n      mstore\n      0x20\n      add\n      dup3\n      dup1\n      sload\n      tag_33\n      swap1\n      tag_27\n      jump\t// in\n    tag_33:\n      dup1\n      iszero\n      tag_34\n      jumpi\n      dup1\n      0x1f\n      lt\n      tag_35\n      jumpi\n      0x0100\n      dup1\n      dup4\n      sload\n      div\n      mul\n      dup4\n      mstore\n      swap2\n      0x20\n      add\n      swap2\n      jump(tag_34)\n    tag_35:\n      dup3\n      add\n      swap2\n      swap1\n      0x00\n      mstore\n      keccak256(0x00, 0x20)\n      swap1\n    tag_36:\n      dup2\n      sload\n      dup2\n      mstore\n      swap1\n      0x01\n      add\n      swap1\n      0x20\n      add\n      dup1\n      dup4\n      gt\n      tag_36\n      jumpi\n      dup3\n      swap1\n      sub\n      0x1f\n      and\n      dup3\n      add\n      swap2\n    tag_34:\n      pop\n      pop\n      pop\n      pop\n      pop\n      dup2\n      jump\t// out\n        /* \"contracts/Pet_Contract.sol\":559:731  function getPet() public view returns (... */\n    tag_16:\n        /* \"contracts/Pet_Contract.sol\":608:621  string memory */\n      0x60\n        /* \"contracts/Pet_Contract.sol\":633:646  string memory */\n      dup1\n        /* \"contracts/Pet_Contract.sol\":658:671  string memory */\n      0x60\n        /* \"contracts/Pet_Contract.sol\":697:703  petAge */\n      0x02\n        /* \"contracts/Pet_Contract.sol\":705:712  petName */\n      0x00\n        /* \"contracts/Pet_Contract.sol\":714:722  petOwner */\n      0x01\n        /* \"contracts/Pet_Contract.sol\":689:723  return (petAge, petName, petOwner) */\n      dup3\n      dup1\n      sload\n      tag_38\n      swap1\n      tag_27\n      jump\t// in\n    tag_38:\n      dup1\n      0x1f\n      add\n      0x20\n      dup1\n      swap2\n      div\n      mul\n      0x20\n      add\n      mload(0x40)\n      swap1\n      dup2\n      add\n      0x40\n      mstore\n      dup1\n      swap3\n      swap2\n      swap1\n      dup2\n      dup2\n      mstore\n      0x20\n      add\n      dup3\n      dup1\n      sload\n      tag_39\n      swap1\n      tag_27\n      jump\t// in\n    tag_39:\n      dup1\n      iszero\n      tag_40\n      jumpi\n      dup1\n      0x1f\n      lt\n      tag_41\n      jumpi\n      0x0100\n      dup1\n      dup4\n      sload\n      div\n      mul\n      dup4\n      mstore\n      swap2\n      0x20\n      add\n      swap2\n      jump(tag_40)\n    tag_41:\n      dup3\n      add\n      swap2\n      swap1\n      0x00\n      mstore\n      keccak256(0x00, 0x20)\n      swap1\n    tag_42:\n      dup2\n      sload\n      dup2\n      mstore\n      swap1\n      0x01\n      add\n      swap1\n      0x20\n      add\n      dup1\n      dup4\n      gt\n      tag_42\n      jumpi\n      dup3\n      swap1\n      sub\n      0x1f\n      and\n      dup3\n      add\n      swap2\n    tag_40:\n      pop\n      pop\n      pop\n      pop\n      pop\n      swap3\n      pop\n      dup2\n      dup1\n      sload\n      tag_43\n      swap1\n      tag_27\n      jump\t// in\n    tag_43:\n      dup1\n      0x1f\n      add\n      0x20\n      dup1\n      swap2\n      div\n      mul\n      0x20\n      add\n      mload(0x40)\n      swap1\n      dup2\n      add\n      0x40\n      mstore\n      dup1\n      swap3\n      swap2\n      swap1\n      dup2\n      dup2\n      mstore\n      0x20\n      add\n      dup3\n      dup1\n      sload\n      tag_44\n      swap1\n      tag_27\n      jump\t// in\n    tag_44:\n      dup1\n      iszero\n      tag_45\n      jumpi\n      dup1\n      0x1f\n      lt\n      tag_46\n      jumpi\n      0x0100\n      dup1\n      dup4\n      sload\n      div\n      mul\n      dup4\n      mstore\n      swap2\n      0x20\n      add\n      swap2\n      jump(tag_45)\n    tag_46:\n      dup3\n      add\n      swap2\n      swap1\n      0x00\n      mstore\n      keccak256(0x00, 0x20)\n      swap1\n    tag_47:\n      dup2\n      sload\n      dup2\n      mstore\n      swap1\n      0x01\n      add\n      swap1\n      0x20\n      add\n      dup1\n      dup4\n      gt\n      tag_47\n      jumpi\n      dup3\n      swap1\n      sub\n      0x1f\n      and\n      dup3\n      add\n      swap2\n    tag_45:\n      pop\n      pop\n      pop\n      pop\n      pop\n      swap2\n      pop\n      dup1\n      dup1\n      sload\n      tag_48\n      swap1\n      tag_27\n      jump\t// in\n    tag_48:\n      dup1\n      0x1f\n      add\n      0x20\n      dup1\n      swap2\n      div\n      mul\n      0x20\n      add\n      mload(0x40)\n      swap1\n      dup2\n      add\n      0x40\n      mstore\n      dup1\n      swap3\n      swap2\n      swap1\n      dup2\n      dup2\n      mstore\n      0x20\n      add\n      dup3\n      dup1\n      sload\n      tag_49\n      swap1\n      tag_27\n      jump\t// in\n    tag_49:\n      dup1\n      iszero\n      tag_50\n      jumpi\n      dup1\n      0x1f\n      lt\n      tag_51\n      jumpi\n      0x0100\n      dup1\n      dup4\n      sload\n      div\n      mul\n      dup4\n      mstore\n      swap2\n      0x20\n      add\n      swap2\n      jump(tag_50)\n    tag_51:\n      dup3\n      add\n      swap2\n      swap1\n      0x00\n      mstore\n      keccak256(0x00, 0x20)\n      swap1\n    tag_52:\n      dup2\n      sload\n      dup2\n      mstore\n      swap1\n      0x01\n      add\n      swap1\n      0x20\n      add\n      dup1\n      dup4\n      gt\n      tag_52\n      jumpi\n      dup3\n      swap1\n      sub\n      0x1f\n      and\n      dup3\n      add\n      swap2\n    tag_50:\n      pop\n      pop\n      pop\n      pop\n      pop\n      swap1\n      pop\n      swap3\n      pop\n      swap3\n      pop\n      swap3\n      pop\n        /* \"contracts/Pet_Contract.sol\":559:731  function getPet() public view returns (... */\n      swap1\n      swap2\n      swap3\n      jump\t// out\n        /* \"contracts/Pet_Contract.sol\":274:510  function setPet( ... */\n    tag_22:\n        /* \"contracts/Pet_Contract.sol\":430:440  newPetName */\n      dup3\n        /* \"contracts/Pet_Contract.sol\":420:427  petName */\n      0x00\n        /* \"contracts/Pet_Contract.sol\":420:440  petName = newPetName */\n      swap1\n      dup2\n      tag_54\n      swap2\n      swap1\n      tag_55\n      jump\t// in\n    tag_54:\n      pop\n        /* \"contracts/Pet_Contract.sol\":462:473  newPetOwner */\n      dup2\n        /* \"contracts/Pet_Contract.sol\":451:459  petOwner */\n      0x01\n        /* \"contracts/Pet_Contract.sol\":451:473  petOwner = newPetOwner */\n      swap1\n      dup2\n      tag_56\n      swap2\n      swap1\n      tag_55\n      jump\t// in\n    tag_56:\n      pop\n        /* \"contracts/Pet_Contract.sol\":493:502  newPetAge */\n      dup1\n        /* \"contracts/Pet_Contract.sol\":484:490  petAge */\n      0x02\n        /* \"contracts/Pet_Contract.sol\":484:502  petAge = newPetAge */\n      swap1\n      dup2\n      tag_57\n      swap2\n      swap1\n      tag_55\n      jump\t// in\n    tag_57:\n      pop\n        /* \"contracts/Pet_Contract.sol\":274:510  function setPet( ... */\n      pop\n      pop\n      pop\n      jump\t// out\n        /* \"contracts/Pet_Contract.sol\":178:200  string public petOwner */\n    tag_24:\n      0x01\n      dup1\n      sload\n      tag_58\n      swap1\n      tag_27\n      jump\t// in\n    tag_58:\n      dup1\n      0x1f\n      add\n      0x20\n      dup1\n      swap2\n      div\n      mul\n      0x20\n      add\n      mload(0x40)\n      swap1\n      dup2\n      add\n      0x40\n      mstore\n      dup1\n      swap3\n      swap2\n      swap1\n      dup2\n      dup2\n      mstore\n      0x20\n      add\n      dup3\n      dup1\n      sload\n      tag_59\n      swap1\n      tag_27\n      jump\t// in\n    tag_59:\n      dup1\n      iszero\n      tag_60\n      jumpi\n      dup1\n      0x1f\n      lt\n      tag_61\n      jumpi\n      0x0100\n      dup1\n      dup4\n      sload\n      div\n      mul\n      dup4\n      mstore\n      swap2\n      0x20\n      add\n      swap2\n      jump(tag_60)\n    tag_61:\n      dup3\n      add\n      swap2\n      swap1\n      0x00\n      mstore\n      keccak256(0x00, 0x20)\n      swap1\n    tag_62:\n      dup2\n      sload\n      dup2\n      mstore\n      swap1\n      0x01\n      add\n      swap1\n      0x20\n      add\n      dup1\n      dup4\n      gt\n      tag_62\n      jumpi\n      dup3\n      swap1\n      sub\n      0x1f\n      and\n      dup3\n      add\n      swap2\n    tag_60:\n      pop\n      pop\n      pop\n      pop\n      pop\n      dup2\n      jump\t// out\n        /* \"#utility.yul\":7:106   */\n    tag_63:\n        /* \"#utility.yul\":59:65   */\n      0x00\n        /* \"#utility.yul\":93:98   */\n      dup2\n        /* \"#utility.yul\":87:99   */\n      mload\n        /* \"#utility.yul\":77:99   */\n      swap1\n      pop\n        /* \"#utility.yul\":7:106   */\n      swap2\n      swap1\n      pop\n      jump\t// out\n        /* \"#utility.yul\":112:281   */\n    tag_64:\n        /* \"#utility.yul\":196:207   */\n      0x00\n        /* \"#utility.yul\":230:236   */\n      dup3\n        /* \"#utility.yul\":225:228   */\n      dup3\n        /* \"#utility.yul\":218:237   */\n      mstore\n        /* \"#utility.yul\":270:274   */\n      0x20\n        /* \"#utility.yul\":265:268   */\n      dup3\n        /* \"#utility.yul\":261:275   */\n      add\n        /* \"#utility.yul\":246:275   */\n      swap1\n      pop\n        /* \"#utility.yul\":112:281   */\n      swap3\n      swap2\n      pop\n      pop\n      jump\t// out\n        /* \"#utility.yul\":287:533   */\n    tag_65:\n        /* \"#utility.yul\":368:369   */\n      0x00\n        /* \"#utility.yul\":378:491   */\n    tag_101:\n        /* \"#utility.yul\":392:398   */\n      dup4\n        /* \"#utility.yul\":389:390   */\n      dup2\n        /* \"#utility.yul\":386:399   */\n      lt\n        /* \"#utility.yul\":378:491   */\n      iszero\n      tag_103\n      jumpi\n        /* \"#utility.yul\":477:478   */\n      dup1\n        /* \"#utility.yul\":472:475   */\n      dup3\n        /* \"#utility.yul\":468:479   */\n      add\n        /* \"#utility.yul\":462:480   */\n      mload\n        /* \"#utility.yul\":458:459   */\n      dup2\n        /* \"#utility.yul\":453:456   */\n      dup5\n        /* \"#utility.yul\":449:460   */\n      add\n        /* \"#utility.yul\":442:481   */\n      mstore\n        /* \"#utility.yul\":414:416   */\n      0x20\n        /* \"#utility.yul\":411:412   */\n      dup2\n        /* \"#utility.yul\":407:417   */\n      add\n        /* \"#utility.yul\":402:417   */\n      swap1\n      pop\n        /* \"#utility.yul\":378:491   */\n      jump(tag_101)\n    tag_103:\n        /* \"#utility.yul\":525:526   */\n      0x00\n        /* \"#utility.yul\":516:522   */\n      dup5\n        /* \"#utility.yul\":511:514   */\n      dup5\n        /* \"#utility.yul\":507:523   */\n      add\n        /* \"#utility.yul\":500:527   */\n      mstore\n        /* \"#utility.yul\":349:533   */\n      pop\n        /* \"#utility.yul\":287:533   */\n      pop\n      pop\n      pop\n      jump\t// out\n        /* \"#utility.yul\":539:641   */\n    tag_66:\n        /* \"#utility.yul\":580:586   */\n      0x00\n        /* \"#utility.yul\":631:633   */\n      0x1f\n        /* \"#utility.yul\":627:634   */\n      not\n        /* \"#utility.yul\":622:624   */\n      0x1f\n        /* \"#utility.yul\":615:620   */\n      dup4\n        /* \"#utility.yul\":611:625   */\n      add\n        /* \"#utility.yul\":607:635   */\n      and\n        /* \"#utility.yul\":597:635   */\n      swap1\n      pop\n        /* \"#utility.yul\":539:641   */\n      swap2\n      swap1\n      pop\n      jump\t// out\n        /* \"#utility.yul\":647:1024   */\n    tag_67:\n        /* \"#utility.yul\":735:738   */\n      0x00\n        /* \"#utility.yul\":763:802   */\n      tag_106\n        /* \"#utility.yul\":796:801   */\n      dup3\n        /* \"#utility.yul\":763:802   */\n      tag_63\n      jump\t// in\n    tag_106:\n        /* \"#utility.yul\":818:889   */\n      tag_107\n        /* \"#utility.yul\":882:888   */\n      dup2\n        /* \"#utility.yul\":877:880   */\n      dup6\n        /* \"#utility.yul\":818:889   */\n      tag_64\n      jump\t// in\n    tag_107:\n        /* \"#utility.yul\":811:889   */\n      swap4\n      pop\n        /* \"#utility.yul\":898:963   */\n      tag_108\n        /* \"#utility.yul\":956:962   */\n      dup2\n        /* \"#utility.yul\":951:954   */\n      dup6\n        /* \"#utility.yul\":944:948   */\n      0x20\n        /* \"#utility.yul\":937:942   */\n      dup7\n        /* \"#utility.yul\":933:949   */\n      add\n        /* \"#utility.yul\":898:963   */\n      tag_65\n      jump\t// in\n    tag_108:\n        /* \"#utility.yul\":988:1017   */\n      tag_109\n        /* \"#utility.yul\":1010:1016   */\n      dup2\n        /* \"#utility.yul\":988:1017   */\n      tag_66\n      jump\t// in\n    tag_109:\n        /* \"#utility.yul\":983:986   */\n      dup5\n        /* \"#utility.yul\":979:1018   */\n      add\n        /* \"#utility.yul\":972:1018   */\n      swap2\n      pop\n        /* \"#utility.yul\":739:1024   */\n      pop\n        /* \"#utility.yul\":647:1024   */\n      swap3\n      swap2\n      pop\n      pop\n      jump\t// out\n        /* \"#utility.yul\":1030:1343   */\n    tag_11:\n        /* \"#utility.yul\":1143:1147   */\n      0x00\n        /* \"#utility.yul\":1181:1183   */\n      0x20\n        /* \"#utility.yul\":1170:1179   */\n      dup3\n        /* \"#utility.yul\":1166:1184   */\n      add\n        /* \"#utility.yul\":1158:1184   */\n      swap1\n      pop\n        /* \"#utility.yul\":1230:1239   */\n      dup2\n        /* \"#utility.yul\":1224:1228   */\n      dup2\n        /* \"#utility.yul\":1220:1240   */\n      sub\n        /* \"#utility.yul\":1216:1217   */\n      0x00\n        /* \"#utility.yul\":1205:1214   */\n      dup4\n        /* \"#utility.yul\":1201:1218   */\n      add\n        /* \"#utility.yul\":1194:1241   */\n      mstore\n        /* \"#utility.yul\":1258:1336   */\n      tag_111\n        /* \"#utility.yul\":1331:1335   */\n      dup2\n        /* \"#utility.yul\":1322:1328   */\n      dup5\n        /* \"#utility.yul\":1258:1336   */\n      tag_67\n      jump\t// in\n    tag_111:\n        /* \"#utility.yul\":1250:1336   */\n      swap1\n      pop\n        /* \"#utility.yul\":1030:1343   */\n      swap3\n      swap2\n      pop\n      pop\n      jump\t// out\n        /* \"#utility.yul\":1349:2064   */\n    tag_18:\n        /* \"#utility.yul\":1558:1562   */\n      0x00\n        /* \"#utility.yul\":1596:1598   */\n      0x60\n        /* \"#utility.yul\":1585:1594   */\n      dup3\n        /* \"#utility.yul\":1581:1599   */\n      add\n        /* \"#utility.yul\":1573:1599   */\n      swap1\n      pop\n        /* \"#utility.yul\":1645:1654   */\n      dup2\n        /* \"#utility.yul\":1639:1643   */\n      dup2\n        /* \"#utility.yul\":1635:1655   */\n      sub\n        /* \"#utility.yul\":1631:1632   */\n      0x00\n        /* \"#utility.yul\":1620:1629   */\n      dup4\n        /* \"#utility.yul\":1616:1633   */\n      add\n        /* \"#utility.yul\":1609:1656   */\n      mstore\n        /* \"#utility.yul\":1673:1751   */\n      tag_113\n        /* \"#utility.yul\":1746:1750   */\n      dup2\n        /* \"#utility.yul\":1737:1743   */\n      dup7\n        /* \"#utility.yul\":1673:1751   */\n      tag_67\n      jump\t// in\n    tag_113:\n        /* \"#utility.yul\":1665:1751   */\n      swap1\n      pop\n        /* \"#utility.yul\":1798:1807   */\n      dup2\n        /* \"#utility.yul\":1792:1796   */\n      dup2\n        /* \"#utility.yul\":1788:1808   */\n      sub\n        /* \"#utility.yul\":1783:1785   */\n      0x20\n        /* \"#utility.yul\":1772:1781   */\n      dup4\n        /* \"#utility.yul\":1768:1786   */\n      add\n        /* \"#utility.yul\":1761:1809   */\n      mstore\n        /* \"#utility.yul\":1826:1904   */\n      tag_114\n        /* \"#utility.yul\":1899:1903   */\n      dup2\n        /* \"#utility.yul\":1890:1896   */\n      dup6\n        /* \"#utility.yul\":1826:1904   */\n      tag_67\n      jump\t// in\n    tag_114:\n        /* \"#utility.yul\":1818:1904   */\n      swap1\n      pop\n        /* \"#utility.yul\":1951:1960   */\n      dup2\n        /* \"#utility.yul\":1945:1949   */\n      dup2\n        /* \"#utility.yul\":1941:1961   */\n      sub\n        /* \"#utility.yul\":1936:1938   */\n      0x40\n        /* \"#utility.yul\":1925:1934   */\n      dup4\n        /* \"#utility.yul\":1921:1939   */\n      add\n        /* \"#utility.yul\":1914:1962   */\n      mstore\n        /* \"#utility.yul\":1979:2057   */\n      tag_115\n        /* \"#utility.yul\":2052:2056   */\n      dup2\n        /* \"#utility.yul\":2043:2049   */\n      dup5\n        /* \"#utility.yul\":1979:2057   */\n      tag_67\n      jump\t// in\n    tag_115:\n        /* \"#utility.yul\":1971:2057   */\n      swap1\n      pop\n        /* \"#utility.yul\":1349:2064   */\n      swap5\n      swap4\n      pop\n      pop\n      pop\n      pop\n      jump\t// out\n        /* \"#utility.yul\":2070:2145   */\n    tag_68:\n        /* \"#utility.yul\":2103:2109   */\n      0x00\n        /* \"#utility.yul\":2136:2138   */\n      0x40\n        /* \"#utility.yul\":2130:2139   */\n      mload\n        /* \"#utility.yul\":2120:2139   */\n      swap1\n      pop\n        /* \"#utility.yul\":2070:2145   */\n      swap1\n      jump\t// out\n        /* \"#utility.yul\":2151:2268   */\n    tag_69:\n        /* \"#utility.yul\":2260:2261   */\n      0x00\n        /* \"#utility.yul\":2257:2258   */\n      dup1\n        /* \"#utility.yul\":2250:2262   */\n      revert\n        /* \"#utility.yul\":2274:2391   */\n    tag_70:\n        /* \"#utility.yul\":2383:2384   */\n      0x00\n        /* \"#utility.yul\":2380:2381   */\n      dup1\n        /* \"#utility.yul\":2373:2385   */\n      revert\n        /* \"#utility.yul\":2397:2514   */\n    tag_71:\n        /* \"#utility.yul\":2506:2507   */\n      0x00\n        /* \"#utility.yul\":2503:2504   */\n      dup1\n        /* \"#utility.yul\":2496:2508   */\n      revert\n        /* \"#utility.yul\":2520:2637   */\n    tag_72:\n        /* \"#utility.yul\":2629:2630   */\n      0x00\n        /* \"#utility.yul\":2626:2627   */\n      dup1\n        /* \"#utility.yul\":2619:2631   */\n      revert\n        /* \"#utility.yul\":2643:2823   */\n    tag_73:\n        /* \"#utility.yul\":2691:2768   */\n      0x4e487b7100000000000000000000000000000000000000000000000000000000\n        /* \"#utility.yul\":2688:2689   */\n      0x00\n        /* \"#utility.yul\":2681:2769   */\n      mstore\n        /* \"#utility.yul\":2788:2792   */\n      0x41\n        /* \"#utility.yul\":2785:2786   */\n      0x04\n        /* \"#utility.yul\":2778:2793   */\n      mstore\n        /* \"#utility.yul\":2812:2816   */\n      0x24\n        /* \"#utility.yul\":2809:2810   */\n      0x00\n        /* \"#utility.yul\":2802:2817   */\n      revert\n        /* \"#utility.yul\":2829:3110   */\n    tag_74:\n        /* \"#utility.yul\":2912:2939   */\n      tag_123\n        /* \"#utility.yul\":2934:2938   */\n      dup3\n        /* \"#utility.yul\":2912:2939   */\n      tag_66\n      jump\t// in\n    tag_123:\n        /* \"#utility.yul\":2904:2910   */\n      dup2\n        /* \"#utility.yul\":2900:2940   */\n      add\n        /* \"#utility.yul\":3042:3048   */\n      dup2\n        /* \"#utility.yul\":3030:3040   */\n      dup2\n        /* \"#utility.yul\":3027:3049   */\n      lt\n        /* \"#utility.yul\":3006:3024   */\n      0xffffffffffffffff\n        /* \"#utility.yul\":2994:3004   */\n      dup3\n        /* \"#utility.yul\":2991:3025   */\n      gt\n        /* \"#utility.yul\":2988:3050   */\n      or\n        /* \"#utility.yul\":2985:3073   */\n      iszero\n      tag_124\n      jumpi\n        /* \"#utility.yul\":3053:3071   */\n      tag_125\n      tag_73\n      jump\t// in\n    tag_125:\n        /* \"#utility.yul\":2985:3073   */\n    tag_124:\n        /* \"#utility.yul\":3093:3103   */\n      dup1\n        /* \"#utility.yul\":3089:3091   */\n      0x40\n        /* \"#utility.yul\":3082:3104   */\n      mstore\n        /* \"#utility.yul\":2872:3110   */\n      pop\n        /* \"#utility.yul\":2829:3110   */\n      pop\n      pop\n      jump\t// out\n        /* \"#utility.yul\":3116:3245   */\n    tag_75:\n        /* \"#utility.yul\":3150:3156   */\n      0x00\n        /* \"#utility.yul\":3177:3197   */\n      tag_127\n      tag_68\n      jump\t// in\n    tag_127:\n        /* \"#utility.yul\":3167:3197   */\n      swap1\n      pop\n        /* \"#utility.yul\":3206:3239   */\n      tag_128\n        /* \"#utility.yul\":3234:3238   */\n      dup3\n        /* \"#utility.yul\":3226:3232   */\n      dup3\n        /* \"#utility.yul\":3206:3239   */\n      tag_74\n      jump\t// in\n    tag_128:\n        /* \"#utility.yul\":3116:3245   */\n      swap2\n      swap1\n      pop\n      jump\t// out\n        /* \"#utility.yul\":3251:3559   */\n    tag_76:\n        /* \"#utility.yul\":3313:3317   */\n      0x00\n        /* \"#utility.yul\":3403:3421   */\n      0xffffffffffffffff\n        /* \"#utility.yul\":3395:3401   */\n      dup3\n        /* \"#utility.yul\":3392:3422   */\n      gt\n        /* \"#utility.yul\":3389:3445   */\n      iszero\n      tag_130\n      jumpi\n        /* \"#utility.yul\":3425:3443   */\n      tag_131\n      tag_73\n      jump\t// in\n    tag_131:\n        /* \"#utility.yul\":3389:3445   */\n    tag_130:\n        /* \"#utility.yul\":3463:3492   */\n      tag_132\n        /* \"#utility.yul\":3485:3491   */\n      dup3\n        /* \"#utility.yul\":3463:3492   */\n      tag_66\n      jump\t// in\n    tag_132:\n        /* \"#utility.yul\":3455:3492   */\n      swap1\n      pop\n        /* \"#utility.yul\":3547:3551   */\n      0x20\n        /* \"#utility.yul\":3541:3545   */\n      dup2\n        /* \"#utility.yul\":3537:3552   */\n      add\n        /* \"#utility.yul\":3529:3552   */\n      swap1\n      pop\n        /* \"#utility.yul\":3251:3559   */\n      swap2\n      swap1\n      pop\n      jump\t// out\n        /* \"#utility.yul\":3565:3711   */\n    tag_77:\n        /* \"#utility.yul\":3662:3668   */\n      dup3\n        /* \"#utility.yul\":3657:3660   */\n      dup2\n        /* \"#utility.yul\":3652:3655   */\n      dup4\n        /* \"#utility.yul\":3639:3669   */\n      calldatacopy\n        /* \"#utility.yul\":3703:3704   */\n      0x00\n        /* \"#utility.yul\":3694:3700   */\n      dup4\n        /* \"#utility.yul\":3689:3692   */\n      dup4\n        /* \"#utility.yul\":3685:3701   */\n      add\n        /* \"#utility.yul\":3678:3705   */\n      mstore\n        /* \"#utility.yul\":3565:3711   */\n      pop\n      pop\n      pop\n      jump\t// out\n        /* \"#utility.yul\":3717:4142   */\n    tag_78:\n        /* \"#utility.yul\":3795:3800   */\n      0x00\n        /* \"#utility.yul\":3820:3886   */\n      tag_135\n        /* \"#utility.yul\":3836:3885   */\n      tag_136\n        /* \"#utility.yul\":3878:3884   */\n      dup5\n        /* \"#utility.yul\":3836:3885   */\n      tag_76\n      jump\t// in\n    tag_136:\n        /* \"#utility.yul\":3820:3886   */\n      tag_75\n      jump\t// in\n    tag_135:\n        /* \"#utility.yul\":3811:3886   */\n      swap1\n      pop\n        /* \"#utility.yul\":3909:3915   */\n      dup3\n        /* \"#utility.yul\":3902:3907   */\n      dup2\n        /* \"#utility.yul\":3895:3916   */\n      mstore\n        /* \"#utility.yul\":3947:3951   */\n      0x20\n        /* \"#utility.yul\":3940:3945   */\n      dup2\n        /* \"#utility.yul\":3936:3952   */\n      add\n        /* \"#utility.yul\":3985:3988   */\n      dup5\n        /* \"#utility.yul\":3976:3982   */\n      dup5\n        /* \"#utility.yul\":3971:3974   */\n      dup5\n        /* \"#utility.yul\":3967:3983   */\n      add\n        /* \"#utility.yul\":3964:3989   */\n      gt\n        /* \"#utility.yul\":3961:4073   */\n      iszero\n      tag_137\n      jumpi\n        /* \"#utility.yul\":3992:4071   */\n      tag_138\n      tag_72\n      jump\t// in\n    tag_138:\n        /* \"#utility.yul\":3961:4073   */\n    tag_137:\n        /* \"#utility.yul\":4082:4136   */\n      tag_139\n        /* \"#utility.yul\":4129:4135   */\n      dup5\n        /* \"#utility.yul\":4124:4127   */\n      dup3\n        /* \"#utility.yul\":4119:4122   */\n      dup6\n        /* \"#utility.yul\":4082:4136   */\n      tag_77\n      jump\t// in\n    tag_139:\n        /* \"#utility.yul\":3801:4142   */\n      pop\n        /* \"#utility.yul\":3717:4142   */\n      swap4\n      swap3\n      pop\n      pop\n      pop\n      jump\t// out\n        /* \"#utility.yul\":4162:4502   */\n    tag_79:\n        /* \"#utility.yul\":4218:4223   */\n      0x00\n        /* \"#utility.yul\":4267:4270   */\n      dup3\n        /* \"#utility.yul\":4260:4264   */\n      0x1f\n        /* \"#utility.yul\":4252:4258   */\n      dup4\n        /* \"#utility.yul\":4248:4265   */\n      add\n        /* \"#utility.yul\":4244:4271   */\n      slt\n        /* \"#utility.yul\":4234:4356   */\n      tag_141\n      jumpi\n        /* \"#utility.yul\":4275:4354   */\n      tag_142\n      tag_71\n      jump\t// in\n    tag_142:\n        /* \"#utility.yul\":4234:4356   */\n    tag_141:\n        /* \"#utility.yul\":4392:4398   */\n      dup2\n        /* \"#utility.yul\":4379:4399   */\n      calldataload\n        /* \"#utility.yul\":4417:4496   */\n      tag_143\n        /* \"#utility.yul\":4492:4495   */\n      dup5\n        /* \"#utility.yul\":4484:4490   */\n      dup3\n        /* \"#utility.yul\":4477:4481   */\n      0x20\n        /* \"#utility.yul\":4469:4475   */\n      dup7\n        /* \"#utility.yul\":4465:4482   */\n      add\n        /* \"#utility.yul\":4417:4496   */\n      tag_78\n      jump\t// in\n    tag_143:\n        /* \"#utility.yul\":4408:4496   */\n      swap2\n      pop\n        /* \"#utility.yul\":4224:4502   */\n      pop\n        /* \"#utility.yul\":4162:4502   */\n      swap3\n      swap2\n      pop\n      pop\n      jump\t// out\n        /* \"#utility.yul\":4508:5667   */\n    tag_21:\n        /* \"#utility.yul\":4615:4621   */\n      0x00\n        /* \"#utility.yul\":4623:4629   */\n      dup1\n        /* \"#utility.yul\":4631:4637   */\n      0x00\n        /* \"#utility.yul\":4680:4682   */\n      0x60\n        /* \"#utility.yul\":4668:4677   */\n      dup5\n        /* \"#utility.yul\":4659:4666   */\n      dup7\n        /* \"#utility.yul\":4655:4678   */\n      sub\n        /* \"#utility.yul\":4651:4683   */\n      slt\n        /* \"#utility.yul\":4648:4767   */\n      iszero\n      tag_145\n      jumpi\n        /* \"#utility.yul\":4686:4765   */\n      tag_146\n      tag_69\n      jump\t// in\n    tag_146:\n        /* \"#utility.yul\":4648:4767   */\n    tag_145:\n        /* \"#utility.yul\":4834:4835   */\n      0x00\n        /* \"#utility.yul\":4823:4832   */\n      dup5\n        /* \"#utility.yul\":4819:4836   */\n      add\n        /* \"#utility.yul\":4806:4837   */\n      calldataload\n        /* \"#utility.yul\":4864:4882   */\n      0xffffffffffffffff\n        /* \"#utility.yul\":4856:4862   */\n      dup2\n        /* \"#utility.yul\":4853:4883   */\n      gt\n        /* \"#utility.yul\":4850:4967   */\n      iszero\n      tag_147\n      jumpi\n        /* \"#utility.yul\":4886:4965   */\n      tag_148\n      tag_70\n      jump\t// in\n    tag_148:\n        /* \"#utility.yul\":4850:4967   */\n    tag_147:\n        /* \"#utility.yul\":4991:5054   */\n      tag_149\n        /* \"#utility.yul\":5046:5053   */\n      dup7\n        /* \"#utility.yul\":5037:5043   */\n      dup3\n        /* \"#utility.yul\":5026:5035   */\n      dup8\n        /* \"#utility.yul\":5022:5044   */\n      add\n        /* \"#utility.yul\":4991:5054   */\n      tag_79\n      jump\t// in\n    tag_149:\n        /* \"#utility.yul\":4981:5054   */\n      swap4\n      pop\n        /* \"#utility.yul\":4777:5064   */\n      pop\n        /* \"#utility.yul\":5131:5133   */\n      0x20\n        /* \"#utility.yul\":5120:5129   */\n      dup5\n        /* \"#utility.yul\":5116:5134   */\n      add\n        /* \"#utility.yul\":5103:5135   */\n      calldataload\n        /* \"#utility.yul\":5162:5180   */\n      0xffffffffffffffff\n        /* \"#utility.yul\":5154:5160   */\n      dup2\n        /* \"#utility.yul\":5151:5181   */\n      gt\n        /* \"#utility.yul\":5148:5265   */\n      iszero\n      tag_150\n      jumpi\n        /* \"#utility.yul\":5184:5263   */\n      tag_151\n      tag_70\n      jump\t// in\n    tag_151:\n        /* \"#utility.yul\":5148:5265   */\n    tag_150:\n        /* \"#utility.yul\":5289:5352   */\n      tag_152\n        /* \"#utility.yul\":5344:5351   */\n      dup7\n        /* \"#utility.yul\":5335:5341   */\n      dup3\n        /* \"#utility.yul\":5324:5333   */\n      dup8\n        /* \"#utility.yul\":5320:5342   */\n      add\n        /* \"#utility.yul\":5289:5352   */\n      tag_79\n      jump\t// in\n    tag_152:\n        /* \"#utility.yul\":5279:5352   */\n      swap3\n      pop\n        /* \"#utility.yul\":5074:5362   */\n      pop\n        /* \"#utility.yul\":5429:5431   */\n      0x40\n        /* \"#utility.yul\":5418:5427   */\n      dup5\n        /* \"#utility.yul\":5414:5432   */\n      add\n        /* \"#utility.yul\":5401:5433   */\n      calldataload\n        /* \"#utility.yul\":5460:5478   */\n      0xffffffffffffffff\n        /* \"#utility.yul\":5452:5458   */\n      dup2\n        /* \"#utility.yul\":5449:5479   */\n      gt\n        /* \"#utility.yul\":5446:5563   */\n      iszero\n      tag_153\n      jumpi\n        /* \"#utility.yul\":5482:5561   */\n      tag_154\n      tag_70\n      jump\t// in\n    tag_154:\n        /* \"#utility.yul\":5446:5563   */\n    tag_153:\n        /* \"#utility.yul\":5587:5650   */\n      tag_155\n        /* \"#utility.yul\":5642:5649   */\n      dup7\n        /* \"#utility.yul\":5633:5639   */\n      dup3\n        /* \"#utility.yul\":5622:5631   */\n      dup8\n        /* \"#utility.yul\":5618:5640   */\n      add\n        /* \"#utility.yul\":5587:5650   */\n      tag_79\n      jump\t// in\n    tag_155:\n        /* \"#utility.yul\":5577:5650   */\n      swap2\n      pop\n        /* \"#utility.yul\":5372:5660   */\n      pop\n        /* \"#utility.yul\":4508:5667   */\n      swap3\n      pop\n      swap3\n      pop\n      swap3\n      jump\t// out\n        /* \"#utility.yul\":5673:5853   */\n    tag_80:\n        /* \"#utility.yul\":5721:5798   */\n      0x4e487b7100000000000000000000000000000000000000000000000000000000\n        /* \"#utility.yul\":5718:5719   */\n      0x00\n        /* \"#utility.yul\":5711:5799   */\n      mstore\n        /* \"#utility.yul\":5818:5822   */\n      0x22\n        /* \"#utility.yul\":5815:5816   */\n      0x04\n        /* \"#utility.yul\":5808:5823   */\n      mstore\n        /* \"#utility.yul\":5842:5846   */\n      0x24\n        /* \"#utility.yul\":5839:5840   */\n      0x00\n        /* \"#utility.yul\":5832:5847   */\n      revert\n        /* \"#utility.yul\":5859:6179   */\n    tag_27:\n        /* \"#utility.yul\":5903:5909   */\n      0x00\n        /* \"#utility.yul\":5940:5941   */\n      0x02\n        /* \"#utility.yul\":5934:5938   */\n      dup3\n        /* \"#utility.yul\":5930:5942   */\n      div\n        /* \"#utility.yul\":5920:5942   */\n      swap1\n      pop\n        /* \"#utility.yul\":5987:5988   */\n      0x01\n        /* \"#utility.yul\":5981:5985   */\n      dup3\n        /* \"#utility.yul\":5977:5989   */\n      and\n        /* \"#utility.yul\":6008:6026   */\n      dup1\n        /* \"#utility.yul\":5998:6079   */\n      tag_158\n      jumpi\n        /* \"#utility.yul\":6064:6068   */\n      0x7f\n        /* \"#utility.yul\":6056:6062   */\n      dup3\n        /* \"#utility.yul\":6052:6069   */\n      and\n        /* \"#utility.yul\":6042:6069   */\n      swap2\n      pop\n        /* \"#utility.yul\":5998:6079   */\n    tag_158:\n        /* \"#utility.yul\":6126:6128   */\n      0x20\n        /* \"#utility.yul\":6118:6124   */\n      dup3\n        /* \"#utility.yul\":6115:6129   */\n      lt\n        /* \"#utility.yul\":6095:6113   */\n      dup2\n        /* \"#utility.yul\":6092:6130   */\n      sub\n        /* \"#utility.yul\":6089:6173   */\n      tag_159\n      jumpi\n        /* \"#utility.yul\":6145:6163   */\n      tag_160\n      tag_80\n      jump\t// in\n    tag_160:\n        /* \"#utility.yul\":6089:6173   */\n    tag_159:\n        /* \"#utility.yul\":5910:6179   */\n      pop\n        /* \"#utility.yul\":5859:6179   */\n      swap2\n      swap1\n      pop\n      jump\t// out\n        /* \"#utility.yul\":6185:6326   */\n    tag_81:\n        /* \"#utility.yul\":6234:6238   */\n      0x00\n        /* \"#utility.yul\":6257:6260   */\n      dup2\n        /* \"#utility.yul\":6249:6260   */\n      swap1\n      pop\n        /* \"#utility.yul\":6280:6283   */\n      dup2\n        /* \"#utility.yul\":6277:6278   */\n      0x00\n        /* \"#utility.yul\":6270:6284   */\n      mstore\n        /* \"#utility.yul\":6314:6318   */\n      0x20\n        /* \"#utility.yul\":6311:6312   */\n      0x00\n        /* \"#utility.yul\":6301:6319   */\n      keccak256\n        /* \"#utility.yul\":6293:6319   */\n      swap1\n      pop\n        /* \"#utility.yul\":6185:6326   */\n      swap2\n      swap1\n      pop\n      jump\t// out\n        /* \"#utility.yul\":6332:6425   */\n    tag_82:\n        /* \"#utility.yul\":6369:6375   */\n      0x00\n        /* \"#utility.yul\":6416:6418   */\n      0x20\n        /* \"#utility.yul\":6411:6413   */\n      0x1f\n        /* \"#utility.yul\":6404:6409   */\n      dup4\n        /* \"#utility.yul\":6400:6414   */\n      add\n        /* \"#utility.yul\":6396:6419   */\n      div\n        /* \"#utility.yul\":6386:6419   */\n      swap1\n      pop\n        /* \"#utility.yul\":6332:6425   */\n      swap2\n      swap1\n      pop\n      jump\t// out\n        /* \"#utility.yul\":6431:6538   */\n    tag_83:\n        /* \"#utility.yul\":6475:6483   */\n      0x00\n        /* \"#utility.yul\":6525:6530   */\n      dup3\n        /* \"#utility.yul\":6519:6523   */\n      dup3\n        /* \"#utility.yul\":6515:6531   */\n      shl\n        /* \"#utility.yul\":6494:6531   */\n      swap1\n      pop\n        /* \"#utility.yul\":6431:6538   */\n      swap3\n      swap2\n      pop\n      pop\n      jump\t// out\n        /* \"#utility.yul\":6544:6937   */\n    tag_84:\n        /* \"#utility.yul\":6613:6619   */\n      0x00\n        /* \"#utility.yul\":6663:6664   */\n      0x08\n        /* \"#utility.yul\":6651:6661   */\n      dup4\n        /* \"#utility.yul\":6647:6665   */\n      mul\n        /* \"#utility.yul\":6686:6783   */\n      tag_165\n        /* \"#utility.yul\":6716:6782   */\n      0xffffffffffffffffffffffffffffffffffffffffffffffffffffffffffffffff\n        /* \"#utility.yul\":6705:6714   */\n      dup3\n        /* \"#utility.yul\":6686:6783   */\n      tag_83\n      jump\t// in\n    tag_165:\n        /* \"#utility.yul\":6804:6843   */\n      tag_166\n        /* \"#utility.yul\":6834:6842   */\n      dup7\n        /* \"#utility.yul\":6823:6832   */\n      dup4\n        /* \"#utility.yul\":6804:6843   */\n      tag_83\n      jump\t// in\n    tag_166:\n        /* \"#utility.yul\":6792:6843   */\n      swap6\n      pop\n        /* \"#utility.yul\":6876:6880   */\n      dup1\n        /* \"#utility.yul\":6872:6881   */\n      not\n        /* \"#utility.yul\":6865:6870   */\n      dup5\n        /* \"#utility.yul\":6861:6882   */\n      and\n        /* \"#utility.yul\":6852:6882   */\n      swap4\n      pop\n        /* \"#utility.yul\":6925:6929   */\n      dup1\n        /* \"#utility.yul\":6915:6923   */\n      dup7\n        /* \"#utility.yul\":6911:6930   */\n      and\n        /* \"#utility.yul\":6904:6909   */\n      dup5\n        /* \"#utility.yul\":6901:6931   */\n      or\n        /* \"#utility.yul\":6891:6931   */\n      swap3\n      pop\n        /* \"#utility.yul\":6620:6937   */\n      pop\n      pop\n        /* \"#utility.yul\":6544:6937   */\n      swap4\n      swap3\n      pop\n      pop\n      pop\n      jump\t// out\n        /* \"#utility.yul\":6943:7020   */\n    tag_85:\n        /* \"#utility.yul\":6980:6987   */\n      0x00\n        /* \"#utility.yul\":7009:7014   */\n      dup2\n        /* \"#utility.yul\":6998:7014   */\n      swap1\n      pop\n        /* \"#utility.yul\":6943:7020   */\n      swap2\n      swap1\n      pop\n      jump\t// out\n        /* \"#utility.yul\":7026:7086   */\n    tag_86:\n        /* \"#utility.yul\":7054:7057   */\n      0x00\n        /* \"#utility.yul\":7075:7080   */\n      dup2\n        /* \"#utility.yul\":7068:7080   */\n      swap1\n      pop\n        /* \"#utility.yul\":7026:7086   */\n      swap2\n      swap1\n      pop\n      jump\t// out\n        /* \"#utility.yul\":7092:7234   */\n    tag_87:\n        /* \"#utility.yul\":7142:7151   */\n      0x00\n        /* \"#utility.yul\":7175:7228   */\n      tag_170\n        /* \"#utility.yul\":7193:7227   */\n      tag_171\n        /* \"#utility.yul\":7202:7226   */\n      tag_172\n        /* \"#utility.yul\":7220:7225   */\n      dup5\n        /* \"#utility.yul\":7202:7226   */\n      tag_85\n      jump\t// in\n    tag_172:\n        /* \"#utility.yul\":7193:7227   */\n      tag_86\n      jump\t// in\n    tag_171:\n        /* \"#utility.yul\":7175:7228   */\n      tag_85\n      jump\t// in\n    tag_170:\n        /* \"#utility.yul\":7162:7228   */\n      swap1\n      pop\n        /* \"#utility.yul\":7092:7234   */\n      swap2\n      swap1\n      pop\n      jump\t// out\n        /* \"#utility.yul\":7240:7315   */\n    tag_88:\n        /* \"#utility.yul\":7283:7286   */\n      0x00\n        /* \"#utility.yul\":7304:7309   */\n      dup2\n        /* \"#utility.yul\":7297:7309   */\n      swap1\n      pop\n        /* \"#utility.yul\":7240:7315   */\n      swap2\n      swap1\n      pop\n      jump\t// out\n        /* \"#utility.yul\":7321:7590   */\n    tag_89:\n        /* \"#utility.yul\":7431:7470   */\n      tag_175\n        /* \"#utility.yul\":7462:7469   */\n      dup4\n        /* \"#utility.yul\":7431:7470   */\n      tag_87\n      jump\t// in\n    tag_175:\n        /* \"#utility.yul\":7492:7583   */\n      tag_176\n        /* \"#utility.yul\":7541:7582   */\n      tag_177\n        /* \"#utility.yul\":7565:7581   */\n      dup3\n        /* \"#utility.yul\":7541:7582   */\n      tag_88\n      jump\t// in\n    tag_177:\n        /* \"#utility.yul\":7533:7539   */\n      dup5\n        /* \"#utility.yul\":7526:7530   */\n      dup5\n        /* \"#utility.yul\":7520:7531   */\n      sload\n        /* \"#utility.yul\":7492:7583   */\n      tag_84\n      jump\t// in\n    tag_176:\n        /* \"#utility.yul\":7486:7490   */\n      dup3\n        /* \"#utility.yul\":7479:7584   */\n      sstore\n        /* \"#utility.yul\":7397:7590   */\n      pop\n        /* \"#utility.yul\":7321:7590   */\n      pop\n      pop\n      pop\n      jump\t// out\n        /* \"#utility.yul\":7596:7669   */\n    tag_90:\n        /* \"#utility.yul\":7641:7644   */\n      0x00\n        /* \"#utility.yul\":7596:7669   */\n      swap1\n      jump\t// out\n        /* \"#utility.yul\":7675:7864   */\n    tag_91:\n        /* \"#utility.yul\":7752:7784   */\n      tag_180\n      tag_90\n      jump\t// in\n    tag_180:\n        /* \"#utility.yul\":7793:7858   */\n      tag_181\n        /* \"#utility.yul\":7851:7857   */\n      dup2\n        /* \"#utility.yul\":7843:7849   */\n      dup5\n        /* \"#utility.yul\":7837:7841   */\n      dup5\n        /* \"#utility.yul\":7793:7858   */\n      tag_89\n      jump\t// in\n    tag_181:\n        /* \"#utility.yul\":7728:7864   */\n      pop\n        /* \"#utility.yul\":7675:7864   */\n      pop\n      pop\n      jump\t// out\n        /* \"#utility.yul\":7870:8056   */\n    tag_92:\n        /* \"#utility.yul\":7930:8050   */\n    tag_183:\n        /* \"#utility.yul\":7947:7950   */\n      dup2\n        /* \"#utility.yul\":7940:7945   */\n      dup2\n        /* \"#utility.yul\":7937:7951   */\n      lt\n        /* \"#utility.yul\":7930:8050   */\n      iszero\n      tag_185\n      jumpi\n        /* \"#utility.yul\":8001:8040   */\n      tag_186\n        /* \"#utility.yul\":8038:8039   */\n      0x00\n        /* \"#utility.yul\":8031:8036   */\n      dup3\n        /* \"#utility.yul\":8001:8040   */\n      tag_91\n      jump\t// in\n    tag_186:\n        /* \"#utility.yul\":7974:7975   */\n      0x01\n        /* \"#utility.yul\":7967:7972   */\n      dup2\n        /* \"#utility.yul\":7963:7976   */\n      add\n        /* \"#utility.yul\":7954:7976   */\n      swap1\n      pop\n        /* \"#utility.yul\":7930:8050   */\n      jump(tag_183)\n    tag_185:\n        /* \"#utility.yul\":7870:8056   */\n      pop\n      pop\n      jump\t// out\n        /* \"#utility.yul\":8062:8605   */\n    tag_93:\n        /* \"#utility.yul\":8163:8165   */\n      0x1f\n        /* \"#utility.yul\":8158:8161   */\n      dup3\n        /* \"#utility.yul\":8155:8166   */\n      gt\n        /* \"#utility.yul\":8152:8598   */\n      iszero\n      tag_188\n      jumpi\n        /* \"#utility.yul\":8197:8235   */\n      tag_189\n        /* \"#utility.yul\":8229:8234   */\n      dup2\n        /* \"#utility.yul\":8197:8235   */\n      tag_81\n      jump\t// in\n    tag_189:\n        /* \"#utility.yul\":8281:8310   */\n      tag_190\n        /* \"#utility.yul\":8299:8309   */\n      dup5\n        /* \"#utility.yul\":8281:8310   */\n      tag_82\n      jump\t// in\n    tag_190:\n        /* \"#utility.yul\":8271:8279   */\n      dup2\n        /* \"#utility.yul\":8267:8311   */\n      add\n        /* \"#utility.yul\":8464:8466   */\n      0x20\n        /* \"#utility.yul\":8452:8462   */\n      dup6\n        /* \"#utility.yul\":8449:8467   */\n      lt\n        /* \"#utility.yul\":8446:8495   */\n      iszero\n      tag_191\n      jumpi\n        /* \"#utility.yul\":8485:8493   */\n      dup2\n        /* \"#utility.yul\":8470:8493   */\n      swap1\n      pop\n        /* \"#utility.yul\":8446:8495   */\n    tag_191:\n        /* \"#utility.yul\":8508:8588   */\n      tag_192\n        /* \"#utility.yul\":8564:8586   */\n      tag_193\n        /* \"#utility.yul\":8582:8585   */\n      dup6\n        /* \"#utility.yul\":8564:8586   */\n      tag_82\n      jump\t// in\n    tag_193:\n        /* \"#utility.yul\":8554:8562   */\n      dup4\n        /* \"#utility.yul\":8550:8587   */\n      add\n        /* \"#utility.yul\":8537:8548   */\n      dup3\n        /* \"#utility.yul\":8508:8588   */\n      tag_92\n      jump\t// in\n    tag_192:\n        /* \"#utility.yul\":8167:8598   */\n      pop\n      pop\n        /* \"#utility.yul\":8152:8598   */\n    tag_188:\n        /* \"#utility.yul\":8062:8605   */\n      pop\n      pop\n      pop\n      jump\t// out\n        /* \"#utility.yul\":8611:8728   */\n    tag_94:\n        /* \"#utility.yul\":8665:8673   */\n      0x00\n        /* \"#utility.yul\":8715:8720   */\n      dup3\n        /* \"#utility.yul\":8709:8713   */\n      dup3\n        /* \"#utility.yul\":8705:8721   */\n      shr\n        /* \"#utility.yul\":8684:8721   */\n      swap1\n      pop\n        /* \"#utility.yul\":8611:8728   */\n      swap3\n      swap2\n      pop\n      pop\n      jump\t// out\n        /* \"#utility.yul\":8734:8903   */\n    tag_95:\n        /* \"#utility.yul\":8778:8784   */\n      0x00\n        /* \"#utility.yul\":8811:8862   */\n      tag_196\n        /* \"#utility.yul\":8859:8860   */\n      0x00\n        /* \"#utility.yul\":8855:8861   */\n      not\n        /* \"#utility.yul\":8847:8852   */\n      dup5\n        /* \"#utility.yul\":8844:8845   */\n      0x08\n        /* \"#utility.yul\":8840:8853   */\n      mul\n        /* \"#utility.yul\":8811:8862   */\n      tag_94\n      jump\t// in\n    tag_196:\n        /* \"#utility.yul\":8807:8863   */\n      not\n        /* \"#utility.yul\":8892:8896   */\n      dup1\n        /* \"#utility.yul\":8886:8890   */\n      dup4\n        /* \"#utility.yul\":8882:8897   */\n      and\n        /* \"#utility.yul\":8872:8897   */\n      swap2\n      pop\n        /* \"#utility.yul\":8785:8903   */\n      pop\n        /* \"#utility.yul\":8734:8903   */\n      swap3\n      swap2\n      pop\n      pop\n      jump\t// out\n        /* \"#utility.yul\":8908:9203   */\n    tag_96:\n        /* \"#utility.yul\":8984:8988   */\n      0x00\n        /* \"#utility.yul\":9130:9159   */\n      tag_198\n        /* \"#utility.yul\":9155:9158   */\n      dup4\n        /* \"#utility.yul\":9149:9153   */\n      dup4\n        /* \"#utility.yul\":9130:9159   */\n      tag_95\n      jump\t// in\n    tag_198:\n        /* \"#utility.yul\":9122:9159   */\n      swap2\n      pop\n        /* \"#utility.yul\":9192:9195   */\n      dup3\n        /* \"#utility.yul\":9189:9190   */\n      0x02\n        /* \"#utility.yul\":9185:9196   */\n      mul\n        /* \"#utility.yul\":9179:9183   */\n      dup3\n        /* \"#utility.yul\":9176:9197   */\n      or\n        /* \"#utility.yul\":9168:9197   */\n      swap1\n      pop\n        /* \"#utility.yul\":8908:9203   */\n      swap3\n      swap2\n      pop\n      pop\n      jump\t// out\n        /* \"#utility.yul\":9208:10603   */\n    tag_55:\n        /* \"#utility.yul\":9325:9362   */\n      tag_200\n        /* \"#utility.yul\":9358:9361   */\n      dup3\n        /* \"#utility.yul\":9325:9362   */\n      tag_63\n      jump\t// in\n    tag_200:\n        /* \"#utility.yul\":9427:9445   */\n      0xffffffffffffffff\n        /* \"#utility.yul\":9419:9425   */\n      dup2\n        /* \"#utility.yul\":9416:9446   */\n      gt\n        /* \"#utility.yul\":9413:9469   */\n      iszero\n      tag_201\n      jumpi\n        /* \"#utility.yul\":9449:9467   */\n      tag_202\n      tag_73\n      jump\t// in\n    tag_202:\n        /* \"#utility.yul\":9413:9469   */\n    tag_201:\n        /* \"#utility.yul\":9493:9531   */\n      tag_203\n        /* \"#utility.yul\":9525:9529   */\n      dup3\n        /* \"#utility.yul\":9519:9530   */\n      sload\n        /* \"#utility.yul\":9493:9531   */\n      tag_27\n      jump\t// in\n    tag_203:\n        /* \"#utility.yul\":9578:9645   */\n      tag_204\n        /* \"#utility.yul\":9638:9644   */\n      dup3\n        /* \"#utility.yul\":9630:9636   */\n      dup3\n        /* \"#utility.yul\":9624:9628   */\n      dup6\n        /* \"#utility.yul\":9578:9645   */\n      tag_93\n      jump\t// in\n    tag_204:\n        /* \"#utility.yul\":9672:9673   */\n      0x00\n        /* \"#utility.yul\":9696:9700   */\n      0x20\n        /* \"#utility.yul\":9683:9700   */\n      swap1\n      pop\n        /* \"#utility.yul\":9728:9730   */\n      0x1f\n        /* \"#utility.yul\":9720:9726   */\n      dup4\n        /* \"#utility.yul\":9717:9731   */\n      gt\n        /* \"#utility.yul\":9745:9746   */\n      0x01\n        /* \"#utility.yul\":9740:10358   */\n      dup2\n      eq\n      tag_206\n      jumpi\n        /* \"#utility.yul\":10402:10403   */\n      0x00\n        /* \"#utility.yul\":10419:10425   */\n      dup5\n        /* \"#utility.yul\":10416:10493   */\n      iszero\n      tag_207\n      jumpi\n        /* \"#utility.yul\":10468:10477   */\n      dup3\n        /* \"#utility.yul\":10463:10466   */\n      dup8\n        /* \"#utility.yul\":10459:10478   */\n      add\n        /* \"#utility.yul\":10453:10479   */\n      mload\n        /* \"#utility.yul\":10444:10479   */\n      swap1\n      pop\n        /* \"#utility.yul\":10416:10493   */\n    tag_207:\n        /* \"#utility.yul\":10519:10586   */\n      tag_208\n        /* \"#utility.yul\":10579:10585   */\n      dup6\n        /* \"#utility.yul\":10572:10577   */\n      dup3\n        /* \"#utility.yul\":10519:10586   */\n      tag_96\n      jump\t// in\n    tag_208:\n        /* \"#utility.yul\":10513:10517   */\n      dup7\n        /* \"#utility.yul\":10506:10587   */\n      sstore\n        /* \"#utility.yul\":10375:10597   */\n      pop\n        /* \"#utility.yul\":9710:10597   */\n      jump(tag_205)\n        /* \"#utility.yul\":9740:10358   */\n    tag_206:\n        /* \"#utility.yul\":9792:9796   */\n      0x1f\n        /* \"#utility.yul\":9788:9797   */\n      not\n        /* \"#utility.yul\":9780:9786   */\n      dup5\n        /* \"#utility.yul\":9776:9798   */\n      and\n        /* \"#utility.yul\":9826:9863   */\n      tag_209\n        /* \"#utility.yul\":9858:9862   */\n      dup7\n        /* \"#utility.yul\":9826:9863   */\n      tag_81\n      jump\t// in\n    tag_209:\n        /* \"#utility.yul\":9885:9886   */\n      0x00\n        /* \"#utility.yul\":9899:10107   */\n    tag_210:\n        /* \"#utility.yul\":9913:9920   */\n      dup3\n        /* \"#utility.yul\":9910:9911   */\n      dup2\n        /* \"#utility.yul\":9907:9921   */\n      lt\n        /* \"#utility.yul\":9899:10107   */\n      iszero\n      tag_212\n      jumpi\n        /* \"#utility.yul\":9992:10001   */\n      dup5\n        /* \"#utility.yul\":9987:9990   */\n      dup10\n        /* \"#utility.yul\":9983:10002   */\n      add\n        /* \"#utility.yul\":9977:10003   */\n      mload\n        /* \"#utility.yul\":9969:9975   */\n      dup3\n        /* \"#utility.yul\":9962:10004   */\n      sstore\n        /* \"#utility.yul\":10043:10044   */\n      0x01\n        /* \"#utility.yul\":10035:10041   */\n      dup3\n        /* \"#utility.yul\":10031:10045   */\n      add\n        /* \"#utility.yul\":10021:10045   */\n      swap2\n      pop\n        /* \"#utility.yul\":10090:10092   */\n      0x20\n        /* \"#utility.yul\":10079:10088   */\n      dup6\n        /* \"#utility.yul\":10075:10093   */\n      add\n        /* \"#utility.yul\":10062:10093   */\n      swap5\n      pop\n        /* \"#utility.yul\":9936:9940   */\n      0x20\n        /* \"#utility.yul\":9933:9934   */\n      dup2\n        /* \"#utility.yul\":9929:9941   */\n      add\n        /* \"#utility.yul\":9924:9941   */\n      swap1\n      pop\n        /* \"#utility.yul\":9899:10107   */\n      jump(tag_210)\n    tag_212:\n        /* \"#utility.yul\":10135:10141   */\n      dup7\n        /* \"#utility.yul\":10126:10133   */\n      dup4\n        /* \"#utility.yul\":10123:10142   */\n      lt\n        /* \"#utility.yul\":10120:10299   */\n      iszero\n      tag_213\n      jumpi\n        /* \"#utility.yul\":10193:10202   */\n      dup5\n        /* \"#utility.yul\":10188:10191   */\n      dup10\n        /* \"#utility.yul\":10184:10203   */\n      add\n        /* \"#utility.yul\":10178:10204   */\n      mload\n        /* \"#utility.yul\":10236:10284   */\n      tag_214\n        /* \"#utility.yul\":10278:10282   */\n      0x1f\n        /* \"#utility.yul\":10270:10276   */\n      dup10\n        /* \"#utility.yul\":10266:10283   */\n      and\n        /* \"#utility.yul\":10255:10264   */\n      dup3\n        /* \"#utility.yul\":10236:10284   */\n      tag_95\n      jump\t// in\n    tag_214:\n        /* \"#utility.yul\":10228:10234   */\n      dup4\n        /* \"#utility.yul\":10221:10285   */\n      sstore\n        /* \"#utility.yul\":10143:10299   */\n      pop\n        /* \"#utility.yul\":10120:10299   */\n    tag_213:\n        /* \"#utility.yul\":10345:10346   */\n      0x01\n        /* \"#utility.yul\":10341:10342   */\n      0x02\n        /* \"#utility.yul\":10333:10339   */\n      dup9\n        /* \"#utility.yul\":10329:10343   */\n      mul\n        /* \"#utility.yul\":10325:10347   */\n      add\n        /* \"#utility.yul\":10319:10323   */\n      dup9\n        /* \"#utility.yul\":10312:10348   */\n      sstore\n        /* \"#utility.yul\":9747:10358   */\n      pop\n      pop\n      pop\n        /* \"#utility.yul\":9710:10597   */\n    tag_205:\n      pop\n        /* \"#utility.yul\":9300:10603   */\n      pop\n      pop\n      pop\n        /* \"#utility.yul\":9208:10603   */\n      pop\n      pop\n      jump\t// out\n\n    auxdata: 0xa26469706673582212205b394a718fa9caef00da41c74915470249f00e60f511c8bf03ae05a7d47fca0c64736f6c63430008110033\n}\n",
				"bytecode": {
					"linkReferences": {},
					"object": "608060405234801561001057600080fd5b50610a97806100206000396000f3fe608060405234801561001057600080fd5b50600436106100575760003560e01c80634b2c979c1461005c578063871c8c671461007a5780638cf3375d1461009857806390373d53146100b8578063be468181146100d4575b600080fd5b6100646100f2565b604051610071919061051b565b60405180910390f35b610082610180565b60405161008f919061051b565b60405180910390f35b6100a061020e565b6040516100af9392919061053d565b60405180910390f35b6100d260048036038101906100cd91906106d2565b6103c8565b005b6100dc6103fd565b6040516100e9919061051b565b60405180910390f35b600080546100ff906107a8565b80601f016020809104026020016040519081016040528092919081815260200182805461012b906107a8565b80156101785780601f1061014d57610100808354040283529160200191610178565b820191906000526020600020905b81548152906001019060200180831161015b57829003601f168201915b505050505081565b6002805461018d906107a8565b80601f01602080910402602001604051908101604052809291908181526020018280546101b9906107a8565b80156102065780601f106101db57610100808354040283529160200191610206565b820191906000526020600020905b8154815290600101906020018083116101e957829003601f168201915b505050505081565b6060806060600260006001828054610225906107a8565b80601f0160208091040260200160405190810160405280929190818152602001828054610251906107a8565b801561029e5780601f106102735761010080835404028352916020019161029e565b820191906000526020600020905b81548152906001019060200180831161028157829003601f168201915b505050505092508180546102b1906107a8565b80601f01602080910402602001604051908101604052809291908181526020018280546102dd906107a8565b801561032a5780601f106102ff5761010080835404028352916020019161032a565b820191906000526020600020905b81548152906001019060200180831161030d57829003601f168201915b5050505050915080805461033d906107a8565b80601f0160208091040260200160405190810160405280929190818152602001828054610369906107a8565b80156103b65780601f1061038b576101008083540402835291602001916103b6565b820191906000526020600020905b81548152906001019060200180831161039957829003601f168201915b50505050509050925092509250909192565b82600090816103d7919061098f565b5081600190816103e7919061098f565b5080600290816103f7919061098f565b50505050565b6001805461040a906107a8565b80601f0160208091040260200160405190810160405280929190818152602001828054610436906107a8565b80156104835780601f1061045857610100808354040283529160200191610483565b820191906000526020600020905b81548152906001019060200180831161046657829003601f168201915b505050505081565b600081519050919050565b600082825260208201905092915050565b60005b838110156104c55780820151818401526020810190506104aa565b60008484015250505050565b6000601f19601f8301169050919050565b60006104ed8261048b565b6104f78185610496565b93506105078185602086016104a7565b610510816104d1565b840191505092915050565b6000602082019050818103600083015261053581846104e2565b905092915050565b6000606082019050818103600083015261055781866104e2565b9050818103602083015261056b81856104e2565b9050818103604083015261057f81846104e2565b9050949350505050565b6000604051905090565b600080fd5b600080fd5b600080fd5b600080fd5b7f4e487b7100000000000000000000000000000000000000000000000000000000600052604160045260246000fd5b6105df826104d1565b810181811067ffffffffffffffff821117156105fe576105fd6105a7565b5b80604052505050565b6000610611610589565b905061061d82826105d6565b919050565b600067ffffffffffffffff82111561063d5761063c6105a7565b5b610646826104d1565b9050602081019050919050565b82818337600083830152505050565b600061067561067084610622565b610607565b905082815260208101848484011115610691576106906105a2565b5b61069c848285610653565b509392505050565b600082601f8301126106b9576106b861059d565b5b81356106c9848260208601610662565b91505092915050565b6000806000606084860312156106eb576106ea610593565b5b600084013567ffffffffffffffff81111561070957610708610598565b5b610715868287016106a4565b935050602084013567ffffffffffffffff81111561073657610735610598565b5b610742868287016106a4565b925050604084013567ffffffffffffffff81111561076357610762610598565b5b61076f868287016106a4565b9150509250925092565b7f4e487b7100000000000000000000000000000000000000000000000000000000600052602260045260246000fd5b600060028204905060018216806107c057607f821691505b6020821081036107d3576107d2610779565b5b50919050565b60008190508160005260206000209050919050565b60006020601f8301049050919050565b600082821b905092915050565b60006008830261083b7fffffffffffffffffffffffffffffffffffffffffffffffffffffffffffffffff826107fe565b61084586836107fe565b95508019841693508086168417925050509392505050565b6000819050919050565b6000819050919050565b600061088c6108876108828461085d565b610867565b61085d565b9050919050565b6000819050919050565b6108a683610871565b6108ba6108b282610893565b84845461080b565b825550505050565b600090565b6108cf6108c2565b6108da81848461089d565b505050565b5b818110156108fe576108f36000826108c7565b6001810190506108e0565b5050565b601f82111561094357610914816107d9565b61091d846107ee565b8101602085101561092c578190505b610940610938856107ee565b8301826108df565b50505b505050565b600082821c905092915050565b600061096660001984600802610948565b1980831691505092915050565b600061097f8383610955565b9150826002028217905092915050565b6109988261048b565b67ffffffffffffffff8111156109b1576109b06105a7565b5b6109bb82546107a8565b6109c6828285610902565b600060209050601f8311600181146109f957600084156109e7578287015190505b6109f18582610973565b865550610a59565b601f198416610a07866107d9565b60005b82811015610a2f57848901518255600182019150602085019450602081019050610a0a565b86831015610a4c5784890151610a48601f891682610955565b8355505b6001600288020188555050505b50505050505056fea26469706673582212205b394a718fa9caef00da41c74915470249f00e60f511c8bf03ae05a7d47fca0c64736f6c63430008110033",
					"opcodes": "PUSH1 0x80 PUSH1 0x40 MSTORE CALLVALUE DUP1 ISZERO PUSH2 0x10 JUMPI PUSH1 0x0 DUP1 REVERT JUMPDEST POP PUSH2 0xA97 DUP1 PUSH2 0x20 PUSH1 0x0 CODECOPY PUSH1 0x0 RETURN INVALID PUSH1 0x80 PUSH1 0x40 MSTORE CALLVALUE DUP1 ISZERO PUSH2 0x10 JUMPI PUSH1 0x0 DUP1 REVERT JUMPDEST POP PUSH1 0x4 CALLDATASIZE LT PUSH2 0x57 JUMPI PUSH1 0x0 CALLDATALOAD PUSH1 0xE0 SHR DUP1 PUSH4 0x4B2C979C EQ PUSH2 0x5C JUMPI DUP1 PUSH4 0x871C8C67 EQ PUSH2 0x7A JUMPI DUP1 PUSH4 0x8CF3375D EQ PUSH2 0x98 JUMPI DUP1 PUSH4 0x90373D53 EQ PUSH2 0xB8 JUMPI DUP1 PUSH4 0xBE468181 EQ PUSH2 0xD4 JUMPI JUMPDEST PUSH1 0x0 DUP1 REVERT JUMPDEST PUSH2 0x64 PUSH2 0xF2 JUMP JUMPDEST PUSH1 0x40 MLOAD PUSH2 0x71 SWAP2 SWAP1 PUSH2 0x51B JUMP JUMPDEST PUSH1 0x40 MLOAD DUP1 SWAP2 SUB SWAP1 RETURN JUMPDEST PUSH2 0x82 PUSH2 0x180 JUMP JUMPDEST PUSH1 0x40 MLOAD PUSH2 0x8F SWAP2 SWAP1 PUSH2 0x51B JUMP JUMPDEST PUSH1 0x40 MLOAD DUP1 SWAP2 SUB SWAP1 RETURN JUMPDEST PUSH2 0xA0 PUSH2 0x20E JUMP JUMPDEST PUSH1 0x40 MLOAD PUSH2 0xAF SWAP4 SWAP3 SWAP2 SWAP1 PUSH2 0x53D JUMP JUMPDEST PUSH1 0x40 MLOAD DUP1 SWAP2 SUB SWAP1 RETURN JUMPDEST PUSH2 0xD2 PUSH1 0x4 DUP1 CALLDATASIZE SUB DUP2 ADD SWAP1 PUSH2 0xCD SWAP2 SWAP1 PUSH2 0x6D2 JUMP JUMPDEST PUSH2 0x3C8 JUMP JUMPDEST STOP JUMPDEST PUSH2 0xDC PUSH2 0x3FD JUMP JUMPDEST PUSH1 0x40 MLOAD PUSH2 0xE9 SWAP2 SWAP1 PUSH2 0x51B JUMP JUMPDEST PUSH1 0x40 MLOAD DUP1 SWAP2 SUB SWAP1 RETURN JUMPDEST PUSH1 0x0 DUP1 SLOAD PUSH2 0xFF SWAP1 PUSH2 0x7A8 JUMP JUMPDEST DUP1 PUSH1 0x1F ADD PUSH1 0x20 DUP1 SWAP2 DIV MUL PUSH1 0x20 ADD PUSH1 0x40 MLOAD SWAP1 DUP2 ADD PUSH1 0x40 MSTORE DUP1 SWAP3 SWAP2 SWAP1 DUP2 DUP2 MSTORE PUSH1 0x20 ADD DUP3 DUP1 SLOAD PUSH2 0x12B SWAP1 PUSH2 0x7A8 JUMP JUMPDEST DUP1 ISZERO PUSH2 0x178 JUMPI DUP1 PUSH1 0x1F LT PUSH2 0x14D JUMPI PUSH2 0x100 DUP1 DUP4 SLOAD DIV MUL DUP4 MSTORE SWAP2 PUSH1 0x20 ADD SWAP2 PUSH2 0x178 JUMP JUMPDEST DUP3 ADD SWAP2 SWAP1 PUSH1 0x0 MSTORE PUSH1 0x20 PUSH1 0x0 KECCAK256 SWAP1 JUMPDEST DUP2 SLOAD DUP2 MSTORE SWAP1 PUSH1 0x1 ADD SWAP1 PUSH1 0x20 ADD DUP1 DUP4 GT PUSH2 0x15B JUMPI DUP3 SWAP1 SUB PUSH1 0x1F AND DUP3 ADD SWAP2 JUMPDEST POP POP POP POP POP DUP2 JUMP JUMPDEST PUSH1 0x2 DUP1 SLOAD PUSH2 0x18D SWAP1 PUSH2 0x7A8 JUMP JUMPDEST DUP1 PUSH1 0x1F ADD PUSH1 0x20 DUP1 SWAP2 DIV MUL PUSH1 0x20 ADD PUSH1 0x40 MLOAD SWAP1 DUP2 ADD PUSH1 0x40 MSTORE DUP1 SWAP3 SWAP2 SWAP1 DUP2 DUP2 MSTORE PUSH1 0x20 ADD DUP3 DUP1 SLOAD PUSH2 0x1B9 SWAP1 PUSH2 0x7A8 JUMP JUMPDEST DUP1 ISZERO PUSH2 0x206 JUMPI DUP1 PUSH1 0x1F LT PUSH2 0x1DB JUMPI PUSH2 0x100 DUP1 DUP4 SLOAD DIV MUL DUP4 MSTORE SWAP2 PUSH1 0x20 ADD SWAP2 PUSH2 0x206 JUMP JUMPDEST DUP3 ADD SWAP2 SWAP1 PUSH1 0x0 MSTORE PUSH1 0x20 PUSH1 0x0 KECCAK256 SWAP1 JUMPDEST DUP2 SLOAD DUP2 MSTORE SWAP1 PUSH1 0x1 ADD SWAP1 PUSH1 0x20 ADD DUP1 DUP4 GT PUSH2 0x1E9 JUMPI DUP3 SWAP1 SUB PUSH1 0x1F AND DUP3 ADD SWAP2 JUMPDEST POP POP POP POP POP DUP2 JUMP JUMPDEST PUSH1 0x60 DUP1 PUSH1 0x60 PUSH1 0x2 PUSH1 0x0 PUSH1 0x1 DUP3 DUP1 SLOAD PUSH2 0x225 SWAP1 PUSH2 0x7A8 JUMP JUMPDEST DUP1 PUSH1 0x1F ADD PUSH1 0x20 DUP1 SWAP2 DIV MUL PUSH1 0x20 ADD PUSH1 0x40 MLOAD SWAP1 DUP2 ADD PUSH1 0x40 MSTORE DUP1 SWAP3 SWAP2 SWAP1 DUP2 DUP2 MSTORE PUSH1 0x20 ADD DUP3 DUP1 SLOAD PUSH2 0x251 SWAP1 PUSH2 0x7A8 JUMP JUMPDEST DUP1 ISZERO PUSH2 0x29E JUMPI DUP1 PUSH1 0x1F LT PUSH2 0x273 JUMPI PUSH2 0x100 DUP1 DUP4 SLOAD DIV MUL DUP4 MSTORE SWAP2 PUSH1 0x20 ADD SWAP2 PUSH2 0x29E JUMP JUMPDEST DUP3 ADD SWAP2 SWAP1 PUSH1 0x0 MSTORE PUSH1 0x20 PUSH1 0x0 KECCAK256 SWAP1 JUMPDEST DUP2 SLOAD DUP2 MSTORE SWAP1 PUSH1 0x1 ADD SWAP1 PUSH1 0x20 ADD DUP1 DUP4 GT PUSH2 0x281 JUMPI DUP3 SWAP1 SUB PUSH1 0x1F AND DUP3 ADD SWAP2 JUMPDEST POP POP POP POP POP SWAP3 POP DUP2 DUP1 SLOAD PUSH2 0x2B1 SWAP1 PUSH2 0x7A8 JUMP JUMPDEST DUP1 PUSH1 0x1F ADD PUSH1 0x20 DUP1 SWAP2 DIV MUL PUSH1 0x20 ADD PUSH1 0x40 MLOAD SWAP1 DUP2 ADD PUSH1 0x40 MSTORE DUP1 SWAP3 SWAP2 SWAP1 DUP2 DUP2 MSTORE PUSH1 0x20 ADD DUP3 DUP1 SLOAD PUSH2 0x2DD SWAP1 PUSH2 0x7A8 JUMP JUMPDEST DUP1 ISZERO PUSH2 0x32A JUMPI DUP1 PUSH1 0x1F LT PUSH2 0x2FF JUMPI PUSH2 0x100 DUP1 DUP4 SLOAD DIV MUL DUP4 MSTORE SWAP2 PUSH1 0x20 ADD SWAP2 PUSH2 0x32A JUMP JUMPDEST DUP3 ADD SWAP2 SWAP1 PUSH1 0x0 MSTORE PUSH1 0x20 PUSH1 0x0 KECCAK256 SWAP1 JUMPDEST DUP2 SLOAD DUP2 MSTORE SWAP1 PUSH1 0x1 ADD SWAP1 PUSH1 0x20 ADD DUP1 DUP4 GT PUSH2 0x30D JUMPI DUP3 SWAP1 SUB PUSH1 0x1F AND DUP3 ADD SWAP2 JUMPDEST POP POP POP POP POP SWAP2 POP DUP1 DUP1 SLOAD PUSH2 0x33D SWAP1 PUSH2 0x7A8 JUMP JUMPDEST DUP1 PUSH1 0x1F ADD PUSH1 0x20 DUP1 SWAP2 DIV MUL PUSH1 0x20 ADD PUSH1 0x40 MLOAD SWAP1 DUP2 ADD PUSH1 0x40 MSTORE DUP1 SWAP3 SWAP2 SWAP1 DUP2 DUP2 MSTORE PUSH1 0x20 ADD DUP3 DUP1 SLOAD PUSH2 0x369 SWAP1 PUSH2 0x7A8 JUMP JUMPDEST DUP1 ISZERO PUSH2 0x3B6 JUMPI DUP1 PUSH1 0x1F LT PUSH2 0x38B JUMPI PUSH2 0x100 DUP1 DUP4 SLOAD DIV MUL DUP4 MSTORE SWAP2 PUSH1 0x20 ADD SWAP2 PUSH2 0x3B6 JUMP JUMPDEST DUP3 ADD SWAP2 SWAP1 PUSH1 0x0 MSTORE PUSH1 0x20 PUSH1 0x0 KECCAK256 SWAP1 JUMPDEST DUP2 SLOAD DUP2 MSTORE SWAP1 PUSH1 0x1 ADD SWAP1 PUSH1 0x20 ADD DUP1 DUP4 GT PUSH2 0x399 JUMPI DUP3 SWAP1 SUB PUSH1 0x1F AND DUP3 ADD SWAP2 JUMPDEST POP POP POP POP POP SWAP1 POP SWAP3 POP SWAP3 POP SWAP3 POP SWAP1 SWAP2 SWAP3 JUMP JUMPDEST DUP3 PUSH1 0x0 SWAP1 DUP2 PUSH2 0x3D7 SWAP2 SWAP1 PUSH2 0x98F JUMP JUMPDEST POP DUP2 PUSH1 0x1 SWAP1 DUP2 PUSH2 0x3E7 SWAP2 SWAP1 PUSH2 0x98F JUMP JUMPDEST POP DUP1 PUSH1 0x2 SWAP1 DUP2 PUSH2 0x3F7 SWAP2 SWAP1 PUSH2 0x98F JUMP JUMPDEST POP POP POP POP JUMP JUMPDEST PUSH1 0x1 DUP1 SLOAD PUSH2 0x40A SWAP1 PUSH2 0x7A8 JUMP JUMPDEST DUP1 PUSH1 0x1F ADD PUSH1 0x20 DUP1 SWAP2 DIV MUL PUSH1 0x20 ADD PUSH1 0x40 MLOAD SWAP1 DUP2 ADD PUSH1 0x40 MSTORE DUP1 SWAP3 SWAP2 SWAP1 DUP2 DUP2 MSTORE PUSH1 0x20 ADD DUP3 DUP1 SLOAD PUSH2 0x436 SWAP1 PUSH2 0x7A8 JUMP JUMPDEST DUP1 ISZERO PUSH2 0x483 JUMPI DUP1 PUSH1 0x1F LT PUSH2 0x458 JUMPI PUSH2 0x100 DUP1 DUP4 SLOAD DIV MUL DUP4 MSTORE SWAP2 PUSH1 0x20 ADD SWAP2 PUSH2 0x483 JUMP JUMPDEST DUP3 ADD SWAP2 SWAP1 PUSH1 0x0 MSTORE PUSH1 0x20 PUSH1 0x0 KECCAK256 SWAP1 JUMPDEST DUP2 SLOAD DUP2 MSTORE SWAP1 PUSH1 0x1 ADD SWAP1 PUSH1 0x20 ADD DUP1 DUP4 GT PUSH2 0x466 JUMPI DUP3 SWAP1 SUB PUSH1 0x1F AND DUP3 ADD SWAP2 JUMPDEST POP POP POP POP POP DUP2 JUMP JUMPDEST PUSH1 0x0 DUP2 MLOAD SWAP1 POP SWAP2 SWAP1 POP JUMP JUMPDEST PUSH1 0x0 DUP3 DUP3 MSTORE PUSH1 0x20 DUP3 ADD SWAP1 POP SWAP3 SWAP2 POP POP JUMP JUMPDEST PUSH1 0x0 JUMPDEST DUP4 DUP2 LT ISZERO PUSH2 0x4C5 JUMPI DUP1 DUP3 ADD MLOAD DUP2 DUP5 ADD MSTORE PUSH1 0x20 DUP2 ADD SWAP1 POP PUSH2 0x4AA JUMP JUMPDEST PUSH1 0x0 DUP5 DUP5 ADD MSTORE POP POP POP POP JUMP JUMPDEST PUSH1 0x0 PUSH1 0x1F NOT PUSH1 0x1F DUP4 ADD AND SWAP1 POP SWAP2 SWAP1 POP JUMP JUMPDEST PUSH1 0x0 PUSH2 0x4ED DUP3 PUSH2 0x48B JUMP JUMPDEST PUSH2 0x4F7 DUP2 DUP6 PUSH2 0x496 JUMP JUMPDEST SWAP4 POP PUSH2 0x507 DUP2 DUP6 PUSH1 0x20 DUP7 ADD PUSH2 0x4A7 JUMP JUMPDEST PUSH2 0x510 DUP2 PUSH2 0x4D1 JUMP JUMPDEST DUP5 ADD SWAP2 POP POP SWAP3 SWAP2 POP POP JUMP JUMPDEST PUSH1 0x0 PUSH1 0x20 DUP3 ADD SWAP1 POP DUP2 DUP2 SUB PUSH1 0x0 DUP4 ADD MSTORE PUSH2 0x535 DUP2 DUP5 PUSH2 0x4E2 JUMP JUMPDEST SWAP1 POP SWAP3 SWAP2 POP POP JUMP JUMPDEST PUSH1 0x0 PUSH1 0x60 DUP3 ADD SWAP1 POP DUP2 DUP2 SUB PUSH1 0x0 DUP4 ADD MSTORE PUSH2 0x557 DUP2 DUP7 PUSH2 0x4E2 JUMP JUMPDEST SWAP1 POP DUP2 DUP2 SUB PUSH1 0x20 DUP4 ADD MSTORE PUSH2 0x56B DUP2 DUP6 PUSH2 0x4E2 JUMP JUMPDEST SWAP1 POP DUP2 DUP2 SUB PUSH1 0x40 DUP4 ADD MSTORE PUSH2 0x57F DUP2 DUP5 PUSH2 0x4E2 JUMP JUMPDEST SWAP1 POP SWAP5 SWAP4 POP POP POP POP JUMP JUMPDEST PUSH1 0x0 PUSH1 0x40 MLOAD SWAP1 POP SWAP1 JUMP JUMPDEST PUSH1 0x0 DUP1 REVERT JUMPDEST PUSH1 0x0 DUP1 REVERT JUMPDEST PUSH1 0x0 DUP1 REVERT JUMPDEST PUSH1 0x0 DUP1 REVERT JUMPDEST PUSH32 0x4E487B7100000000000000000000000000000000000000000000000000000000 PUSH1 0x0 MSTORE PUSH1 0x41 PUSH1 0x4 MSTORE PUSH1 0x24 PUSH1 0x0 REVERT JUMPDEST PUSH2 0x5DF DUP3 PUSH2 0x4D1 JUMP JUMPDEST DUP2 ADD DUP2 DUP2 LT PUSH8 0xFFFFFFFFFFFFFFFF DUP3 GT OR ISZERO PUSH2 0x5FE JUMPI PUSH2 0x5FD PUSH2 0x5A7 JUMP JUMPDEST JUMPDEST DUP1 PUSH1 0x40 MSTORE POP POP POP JUMP JUMPDEST PUSH1 0x0 PUSH2 0x611 PUSH2 0x589 JUMP JUMPDEST SWAP1 POP PUSH2 0x61D DUP3 DUP3 PUSH2 0x5D6 JUMP JUMPDEST SWAP2 SWAP1 POP JUMP JUMPDEST PUSH1 0x0 PUSH8 0xFFFFFFFFFFFFFFFF DUP3 GT ISZERO PUSH2 0x63D JUMPI PUSH2 0x63C PUSH2 0x5A7 JUMP JUMPDEST JUMPDEST PUSH2 0x646 DUP3 PUSH2 0x4D1 JUMP JUMPDEST SWAP1 POP PUSH1 0x20 DUP2 ADD SWAP1 POP SWAP2 SWAP1 POP JUMP JUMPDEST DUP3 DUP2 DUP4 CALLDATACOPY PUSH1 0x0 DUP4 DUP4 ADD MSTORE POP POP POP JUMP JUMPDEST PUSH1 0x0 PUSH2 0x675 PUSH2 0x670 DUP5 PUSH2 0x622 JUMP JUMPDEST PUSH2 0x607 JUMP JUMPDEST SWAP1 POP DUP3 DUP2 MSTORE PUSH1 0x20 DUP2 ADD DUP5 DUP5 DUP5 ADD GT ISZERO PUSH2 0x691 JUMPI PUSH2 0x690 PUSH2 0x5A2 JUMP JUMPDEST JUMPDEST PUSH2 0x69C DUP5 DUP3 DUP6 PUSH2 0x653 JUMP JUMPDEST POP SWAP4 SWAP3 POP POP POP JUMP JUMPDEST PUSH1 0x0 DUP3 PUSH1 0x1F DUP4 ADD SLT PUSH2 0x6B9 JUMPI PUSH2 0x6B8 PUSH2 0x59D JUMP JUMPDEST JUMPDEST DUP2 CALLDATALOAD PUSH2 0x6C9 DUP5 DUP3 PUSH1 0x20 DUP7 ADD PUSH2 0x662 JUMP JUMPDEST SWAP2 POP POP SWAP3 SWAP2 POP POP JUMP JUMPDEST PUSH1 0x0 DUP1 PUSH1 0x0 PUSH1 0x60 DUP5 DUP7 SUB SLT ISZERO PUSH2 0x6EB JUMPI PUSH2 0x6EA PUSH2 0x593 JUMP JUMPDEST JUMPDEST PUSH1 0x0 DUP5 ADD CALLDATALOAD PUSH8 0xFFFFFFFFFFFFFFFF DUP2 GT ISZERO PUSH2 0x709 JUMPI PUSH2 0x708 PUSH2 0x598 JUMP JUMPDEST JUMPDEST PUSH2 0x715 DUP7 DUP3 DUP8 ADD PUSH2 0x6A4 JUMP JUMPDEST SWAP4 POP POP PUSH1 0x20 DUP5 ADD CALLDATALOAD PUSH8 0xFFFFFFFFFFFFFFFF DUP2 GT ISZERO PUSH2 0x736 JUMPI PUSH2 0x735 PUSH2 0x598 JUMP JUMPDEST JUMPDEST PUSH2 0x742 DUP7 DUP3 DUP8 ADD PUSH2 0x6A4 JUMP JUMPDEST SWAP3 POP POP PUSH1 0x40 DUP5 ADD CALLDATALOAD PUSH8 0xFFFFFFFFFFFFFFFF DUP2 GT ISZERO PUSH2 0x763 JUMPI PUSH2 0x762 PUSH2 0x598 JUMP JUMPDEST JUMPDEST PUSH2 0x76F DUP7 DUP3 DUP8 ADD PUSH2 0x6A4 JUMP JUMPDEST SWAP2 POP POP SWAP3 POP SWAP3 POP SWAP3 JUMP JUMPDEST PUSH32 0x4E487B7100000000000000000000000000000000000000000000000000000000 PUSH1 0x0 MSTORE PUSH1 0x22 PUSH1 0x4 MSTORE PUSH1 0x24 PUSH1 0x0 REVERT JUMPDEST PUSH1 0x0 PUSH1 0x2 DUP3 DIV SWAP1 POP PUSH1 0x1 DUP3 AND DUP1 PUSH2 0x7C0 JUMPI PUSH1 0x7F DUP3 AND SWAP2 POP JUMPDEST PUSH1 0x20 DUP3 LT DUP2 SUB PUSH2 0x7D3 JUMPI PUSH2 0x7D2 PUSH2 0x779 JUMP JUMPDEST JUMPDEST POP SWAP2 SWAP1 POP JUMP JUMPDEST PUSH1 0x0 DUP2 SWAP1 POP DUP2 PUSH1 0x0 MSTORE PUSH1 0x20 PUSH1 0x0 KECCAK256 SWAP1 POP SWAP2 SWAP1 POP JUMP JUMPDEST PUSH1 0x0 PUSH1 0x20 PUSH1 0x1F DUP4 ADD DIV SWAP1 POP SWAP2 SWAP1 POP JUMP JUMPDEST PUSH1 0x0 DUP3 DUP3 SHL SWAP1 POP SWAP3 SWAP2 POP POP JUMP JUMPDEST PUSH1 0x0 PUSH1 0x8 DUP4 MUL PUSH2 0x83B PUSH32 0xFFFFFFFFFFFFFFFFFFFFFFFFFFFFFFFFFFFFFFFFFFFFFFFFFFFFFFFFFFFFFFFF DUP3 PUSH2 0x7FE JUMP JUMPDEST PUSH2 0x845 DUP7 DUP4 PUSH2 0x7FE JUMP JUMPDEST SWAP6 POP DUP1 NOT DUP5 AND SWAP4 POP DUP1 DUP7 AND DUP5 OR SWAP3 POP POP POP SWAP4 SWAP3 POP POP POP JUMP JUMPDEST PUSH1 0x0 DUP2 SWAP1 POP SWAP2 SWAP1 POP JUMP JUMPDEST PUSH1 0x0 DUP2 SWAP1 POP SWAP2 SWAP1 POP JUMP JUMPDEST PUSH1 0x0 PUSH2 0x88C PUSH2 0x887 PUSH2 0x882 DUP5 PUSH2 0x85D JUMP JUMPDEST PUSH2 0x867 JUMP JUMPDEST PUSH2 0x85D JUMP JUMPDEST SWAP1 POP SWAP2 SWAP1 POP JUMP JUMPDEST PUSH1 0x0 DUP2 SWAP1 POP SWAP2 SWAP1 POP JUMP JUMPDEST PUSH2 0x8A6 DUP4 PUSH2 0x871 JUMP JUMPDEST PUSH2 0x8BA PUSH2 0x8B2 DUP3 PUSH2 0x893 JUMP JUMPDEST DUP5 DUP5 SLOAD PUSH2 0x80B JUMP JUMPDEST DUP3 SSTORE POP POP POP POP JUMP JUMPDEST PUSH1 0x0 SWAP1 JUMP JUMPDEST PUSH2 0x8CF PUSH2 0x8C2 JUMP JUMPDEST PUSH2 0x8DA DUP2 DUP5 DUP5 PUSH2 0x89D JUMP JUMPDEST POP POP POP JUMP JUMPDEST JUMPDEST DUP2 DUP2 LT ISZERO PUSH2 0x8FE JUMPI PUSH2 0x8F3 PUSH1 0x0 DUP3 PUSH2 0x8C7 JUMP JUMPDEST PUSH1 0x1 DUP2 ADD SWAP1 POP PUSH2 0x8E0 JUMP JUMPDEST POP POP JUMP JUMPDEST PUSH1 0x1F DUP3 GT ISZERO PUSH2 0x943 JUMPI PUSH2 0x914 DUP2 PUSH2 0x7D9 JUMP JUMPDEST PUSH2 0x91D DUP5 PUSH2 0x7EE JUMP JUMPDEST DUP2 ADD PUSH1 0x20 DUP6 LT ISZERO PUSH2 0x92C JUMPI DUP2 SWAP1 POP JUMPDEST PUSH2 0x940 PUSH2 0x938 DUP6 PUSH2 0x7EE JUMP JUMPDEST DUP4 ADD DUP3 PUSH2 0x8DF JUMP JUMPDEST POP POP JUMPDEST POP POP POP JUMP JUMPDEST PUSH1 0x0 DUP3 DUP3 SHR SWAP1 POP SWAP3 SWAP2 POP POP JUMP JUMPDEST PUSH1 0x0 PUSH2 0x966 PUSH1 0x0 NOT DUP5 PUSH1 0x8 MUL PUSH2 0x948 JUMP JUMPDEST NOT DUP1 DUP4 AND SWAP2 POP POP SWAP3 SWAP2 POP POP JUMP JUMPDEST PUSH1 0x0 PUSH2 0x97F DUP4 DUP4 PUSH2 0x955 JUMP JUMPDEST SWAP2 POP DUP3 PUSH1 0x2 MUL DUP3 OR SWAP1 POP SWAP3 SWAP2 POP POP JUMP JUMPDEST PUSH2 0x998 DUP3 PUSH2 0x48B JUMP JUMPDEST PUSH8 0xFFFFFFFFFFFFFFFF DUP2 GT ISZERO PUSH2 0x9B1 JUMPI PUSH2 0x9B0 PUSH2 0x5A7 JUMP JUMPDEST JUMPDEST PUSH2 0x9BB DUP3 SLOAD PUSH2 0x7A8 JUMP JUMPDEST PUSH2 0x9C6 DUP3 DUP3 DUP6 PUSH2 0x902 JUMP JUMPDEST PUSH1 0x0 PUSH1 0x20 SWAP1 POP PUSH1 0x1F DUP4 GT PUSH1 0x1 DUP2 EQ PUSH2 0x9F9 JUMPI PUSH1 0x0 DUP5 ISZERO PUSH2 0x9E7 JUMPI DUP3 DUP8 ADD MLOAD SWAP1 POP JUMPDEST PUSH2 0x9F1 DUP6 DUP3 PUSH2 0x973 JUMP JUMPDEST DUP7 SSTORE POP PUSH2 0xA59 JUMP JUMPDEST PUSH1 0x1F NOT DUP5 AND PUSH2 0xA07 DUP7 PUSH2 0x7D9 JUMP JUMPDEST PUSH1 0x0 JUMPDEST DUP3 DUP2 LT ISZERO PUSH2 0xA2F JUMPI DUP5 DUP10 ADD MLOAD DUP3 SSTORE PUSH1 0x1 DUP3 ADD SWAP2 POP PUSH1 0x20 DUP6 ADD SWAP5 POP PUSH1 0x20 DUP2 ADD SWAP1 POP PUSH2 0xA0A JUMP JUMPDEST DUP7 DUP4 LT ISZERO PUSH2 0xA4C JUMPI DUP5 DUP10 ADD MLOAD PUSH2 0xA48 PUSH1 0x1F DUP10 AND DUP3 PUSH2 0x955 JUMP JUMPDEST DUP4 SSTORE POP JUMPDEST PUSH1 0x1 PUSH1 0x2 DUP9 MUL ADD DUP9 SSTORE POP POP POP JUMPDEST POP POP POP POP POP POP JUMP INVALID LOG2 PUSH5 0x6970667358 0x22 SLT KECCAK256 JUMPDEST CODECOPY 0x4A PUSH18 0x8FA9CAEF00DA41C74915470249F00E60F511 0xC8 0xBF SUB 0xAE SDIV 0xA7 0xD4 PUSH32 0xCA0C64736F6C6343000811003300000000000000000000000000000000000000 "
				},
				"gasEstimates": {
					"creation": {
						"codeDepositCost": "542200",
						"executionCost": "575",
						"totalCost": "542775"
					},
					"external": {
						"getPet()": "infinite",
						"petAge()": "infinite",
						"petName()": "infinite",
						"petOwner()": "infinite",
						"setPet(string,string,string)": "infinite"
					}
				},
				"methodIdentifiers": {
					"getPet()": "8cf3375d",
					"petAge()": "871c8c67",
					"petName()": "4b2c979c",
					"petOwner()": "be468181",
					"setPet(string,string,string)": "90373d53"
				}
			},
			"storageLayout": {
				"storage": [
					{
						"astId": 3,
						"contract": "contracts/Pet_Contract.sol:Pet_Contract",
						"label": "petName",
						"offset": 0,
						"slot": "0",
						"type": "t_string_storage"
					},
					{
						"astId": 5,
						"contract": "contracts/Pet_Contract.sol:Pet_Contract",
						"label": "petOwner",
						"offset": 0,
						"slot": "1",
						"type": "t_string_storage"
					},
					{
						"astId": 7,
						"contract": "contracts/Pet_Contract.sol:Pet_Contract",
						"label": "petAge",
						"offset": 0,
						"slot": "2",
						"type": "t_string_storage"
					}
				],
				"types": {
					"t_string_storage": {
						"encoding": "bytes",
						"label": "string",
						"numberOfBytes": "32"
					}
				}
			},
			"userdoc": {
				"kind": "user",
				"methods": {},
				"version": 1
			}
		}
	}
}